MPLINK 5.00, LINKER
Linker Map File - Created Thu Jun 07 09:02:19 2018

                                 Section Info
                  Section       Type    Address   Location Size(Bytes)
                ---------  ---------  ---------  ---------  ---------
               _entry_scn       code   0x000000    program   0x000006
          .idata_usb9.o_i    romdata   0x000006    program   0x000000
           .romdata_hid.o    romdata   0x000006    program   0x000000
          .romdata_usb9.o    romdata   0x000006    program   0x000000
          .idata_main.o_i    romdata   0x000006    program   0x000002
          .romdata_main.o    romdata   0x000006    program   0x000000
 .romdata_BootPIC18NonJ.o    romdata   0x000006    program   0x000000
    .idata_usbctrltrf.o_i    romdata   0x000006    program   0x000000
    .romdata_usbctrltrf.o    romdata   0x000006    program   0x000000
        .idata_usbdrv.o_i    romdata   0x000006    program   0x000000
       .romdata_usbmmap.o    romdata   0x000006    program   0x000000
       .idata_usbmmap.o_i    romdata   0x000006    program   0x000000
        .romdata_usbdrv.o    romdata   0x000006    program   0x000000
        .idata_usbdsc.o_i    romdata   0x000006    program   0x000000
              high_vector       code   0x000008    program   0x000006
           .code_usbdsc.o       code   0x00000e    program   0x000000
          .code_usbmmap.o       code   0x00000e    program   0x000000
 .idata_BootPIC18NonJ.o_i    romdata   0x00000e    program   0x000000
           .idata_hid.o_i    romdata   0x00000e    program   0x000000
               low_vector       code   0x000018    program   0x00000a
                   .cinit    romdata   0x000022    program   0x00000e
    .code_BootPIC18NonJ.o       code   0x000030    program   0x0005ba
       .code_usbctrltrf.o       code   0x0005ea    program   0x0002be
             .code_usb9.o       code   0x0008a8    program   0x000274
              .code_hid.o       code   0x000b1c    program   0x0001ac
           .code_usbdrv.o       code   0x000cc8    program   0x000160
             .code_main.o       code   0x000e28    program   0x0000b0
        .romdata_usbdsc.o    romdata   0x000ed8    program   0x0000ac
                    .code       code   0x000f84    program   0x000020
          user_app_vector       code   0x001000    program   0x000006
    .config_300000_main.o    romdata   0x300000    program   0x000001
    .config_300001_main.o    romdata   0x300001    program   0x000001
    .config_300002_main.o    romdata   0x300002    program   0x000001
    .config_300003_main.o    romdata   0x300003    program   0x000001
    .config_300005_main.o    romdata   0x300005    program   0x000001
    .config_300006_main.o    romdata   0x300006    program   0x000001
    .config_300008_main.o    romdata   0x300008    program   0x000001
    .config_300009_main.o    romdata   0x300009    program   0x000001
    .config_30000a_main.o    romdata   0x30000a    program   0x000001
    .config_30000b_main.o    romdata   0x30000b    program   0x000001
    .config_30000c_main.o    romdata   0x30000c    program   0x000001
    .config_30000d_main.o    romdata   0x30000d    program   0x000001
                 .tmpdata      udata   0x000000       data   0x000003
                MATH_DATA      udata   0x000003       data   0x000000
         SomeSectionName2      udata   0x000060       data   0x000041
       WriteBufferSection      udata   0x0000a1       data   0x000040
    OtherVariablesSection      udata   0x0000e1       data   0x000013
             .udata_hid.o      udata   0x0000f4       data   0x00000a
            .udata_main.o      udata   0x0000fe       data   0x000002
                   .stack      udata   0x000100       data   0x000050
                  usbram2      udata   0x000200       data   0x0000a0
         SomeSectionName3      udata   0x0002a0       data   0x000041
      .udata_usbctrltrf.o      udata   0x0002e1       data   0x00000f
          .udata_usbdrv.o      udata   0x0002f0       data   0x000005
         .udata_usbmmap.o      udata   0x0002f5       data   0x000004
            .idata_main.o      idata   0x0002f9       data   0x000002
             .idata_hid.o      idata   0x0002fb       data   0x000000
            .udata_usb9.o      udata   0x0002fb       data   0x000000
            .idata_usb9.o      idata   0x0002fb       data   0x000000
   .idata_BootPIC18NonJ.o      idata   0x0002fb       data   0x000000
   .udata_BootPIC18NonJ.o      udata   0x0002fb       data   0x000000
         .idata_usbmmap.o      idata   0x0002fb       data   0x000000
          .idata_usbdsc.o      idata   0x0002fb       data   0x000000
          .udata_usbdsc.o      udata   0x0002fb       data   0x000000
          .idata_usbdrv.o      idata   0x0002fb       data   0x000000
      .idata_usbctrltrf.o      idata   0x0002fb       data   0x000000
              SFR_BANKED0      udata   0x000f53       data   0x00000d
            SFR_UNBANKED0      udata   0x000f60       data   0x0000a0



                              Program Memory Usage 
                               Start         End      
                           ---------   ---------      
                            0x000000    0x00000d      
                            0x000018    0x000fa3      
                            0x001000    0x001005      
                            0x300000    0x300003      
                            0x300005    0x300006      
                            0x300008    0x30000d      
            4012 out of 16664 program addresses used, program memory utilization is 24%



                              Symbols - Sorted by Name
                     Name    Address   Location    Storage File                     
                ---------  ---------  ---------  --------- ---------                
           BlinkUSBStatus   0x000eb4    program     extern E:\Projekte\Bontronic Projekte\esv\Firmware\Bootloader\main.c
                 BootMain   0x000e5e    program     extern E:\Projekte\Bontronic Projekte\esv\Firmware\Bootloader\main.c
          ClassReqHandler   0x000f82    program     extern E:\Projekte\Bontronic Projekte\esv\Firmware\Bootloader\usbdsc.c
               ClearArray   0x000e10    program     extern E:\Projekte\Bontronic Projekte\esv\Firmware\Bootloader\usbdrv.c
            ClearWatchdog   0x0005bc    program     extern E:\Projekte\Bontronic Projekte\esv\Firmware\Bootloader\BootPIC18NonJ.c
DisableUSBandExecuteLongDelay   0x00041c    program     extern E:\Projekte\Bontronic Projekte\esv\Firmware\Bootloader\BootPIC18NonJ.c
    DoFlashSignatureCheck   0x000e34    program     static                          
      HIDGetReportHandler   0x000bea    program     extern E:\Projekte\Bontronic Projekte\esv\Firmware\Bootloader\hid.c
                HIDInitEP   0x000bee    program     extern E:\Projekte\Bontronic Projekte\esv\Firmware\Bootloader\hid.c
              HIDRxReport   0x000c66    program     extern E:\Projekte\Bontronic Projekte\esv\Firmware\Bootloader\hid.c
      HIDSetReportHandler   0x000bec    program     extern E:\Projekte\Bontronic Projekte\esv\Firmware\Bootloader\hid.c
              HIDTxReport   0x000c1a    program     extern E:\Projekte\Bontronic Projekte\esv\Firmware\Bootloader\hid.c
         InitializeSystem   0x000e98    program     static E:\Projekte\Bontronic Projekte\esv\Firmware\Bootloader\main.c
          LowVoltageCheck   0x000eb2    program     extern E:\Projekte\Bontronic Projekte\esv\Firmware\Bootloader\main.c
                ProcessIO   0x000042    program     extern E:\Projekte\Bontronic Projekte\esv\Firmware\Bootloader\BootPIC18NonJ.c
       ResetDeviceCleanly   0x000410    program     extern E:\Projekte\Bontronic Projekte\esv\Firmware\Bootloader\BootPIC18NonJ.c
                SignFlash   0x000376    program     extern E:\Projekte\Bontronic Projekte\esv\Firmware\Bootloader\BootPIC18NonJ.c
   TableReadPostIncrement   0x0005c0    program     extern E:\Projekte\Bontronic Projekte\esv\Firmware\Bootloader\BootPIC18NonJ.c
        USBCheckBusStatus   0x000cc8    program     extern E:\Projekte\Bontronic Projekte\esv\Firmware\Bootloader\usbdrv.c
       USBCheckHIDRequest   0x000b1c    program     extern E:\Projekte\Bontronic Projekte\esv\Firmware\Bootloader\hid.c
       USBCheckStdRequest   0x0008a8    program     extern E:\Projekte\Bontronic Projekte\esv\Firmware\Bootloader\usb9.c
         USBCtrlEPService   0x0005ea    program     extern E:\Projekte\Bontronic Projekte\esv\Firmware\Bootloader\usbctrltrf.c
 USBCtrlEPServiceComplete   0x0007f8    program     extern E:\Projekte\Bontronic Projekte\esv\Firmware\Bootloader\usbctrltrf.c
      USBCtrlTrfInHandler   0x0006f4    program     extern E:\Projekte\Bontronic Projekte\esv\Firmware\Bootloader\usbctrltrf.c
     USBCtrlTrfOutHandler   0x0006c6    program     extern E:\Projekte\Bontronic Projekte\esv\Firmware\Bootloader\usbctrltrf.c
      USBCtrlTrfRxService   0x0007c6    program     extern E:\Projekte\Bontronic Projekte\esv\Firmware\Bootloader\usbctrltrf.c
   USBCtrlTrfSetupHandler   0x000662    program     extern E:\Projekte\Bontronic Projekte\esv\Firmware\Bootloader\usbctrltrf.c
      USBCtrlTrfTxService   0x00073e    program     extern E:\Projekte\Bontronic Projekte\esv\Firmware\Bootloader\usbctrltrf.c
         USBDriverService   0x000cf0    program     extern E:\Projekte\Bontronic Projekte\esv\Firmware\Bootloader\usbdrv.c
USBPrepareForNextSetupTrf   0x00086a    program     extern E:\Projekte\Bontronic Projekte\esv\Firmware\Bootloader\usbctrltrf.c
  USBProtocolResetHandler   0x000dba    program     extern E:\Projekte\Bontronic Projekte\esv\Firmware\Bootloader\usbdrv.c
          USBStallHandler   0x000d96    program     extern E:\Projekte\Bontronic Projekte\esv\Firmware\Bootloader\usbdrv.c
  USBStdFeatureReqHandler   0x000a54    program     extern E:\Projekte\Bontronic Projekte\esv\Firmware\Bootloader\usb9.c
      USBStdGetDscHandler   0x000946    program     extern E:\Projekte\Bontronic Projekte\esv\Firmware\Bootloader\usb9.c
   USBStdGetStatusHandler   0x0009f4    program     extern E:\Projekte\Bontronic Projekte\esv\Firmware\Bootloader\usb9.c
      USBStdSetCfgHandler   0x0009b4    program     extern E:\Projekte\Bontronic Projekte\esv\Firmware\Bootloader\usb9.c
               USBSuspend   0x000d36    program     extern E:\Projekte\Bontronic Projekte\esv\Firmware\Bootloader\usbdrv.c
       USBWakeFromSuspend   0x000d88    program     extern E:\Projekte\Bontronic Projekte\esv\Firmware\Bootloader\usbdrv.c
               USB_CD_Ptr   0x000f78    program     extern E:\Projekte\Bontronic Projekte\esv\Firmware\Bootloader\usbdsc.c
               USB_SD_Ptr   0x000f7c    program     extern E:\Projekte\Bontronic Projekte\esv\Firmware\Bootloader\usbdsc.c
        UninitializedMain   0x000e28    program     extern E:\Projekte\Bontronic Projekte\esv\Firmware\Bootloader\main.c
        UnlockAndActivate   0x000596    program     extern E:\Projekte\Bontronic Projekte\esv\Firmware\Bootloader\BootPIC18NonJ.c
                 UserInit   0x000030    program     extern E:\Projekte\Bontronic Projekte\esv\Firmware\Bootloader\BootPIC18NonJ.c
          WriteConfigBits   0x00050a    program     extern E:\Projekte\Bontronic Projekte\esv\Firmware\Bootloader\BootPIC18NonJ.c
              WriteEEPROM   0x000556    program     extern E:\Projekte\Bontronic Projekte\esv\Firmware\Bootloader\BootPIC18NonJ.c
          WriteFlashBlock   0x000442    program     extern E:\Projekte\Bontronic Projekte\esv\Firmware\Bootloader\BootPIC18NonJ.c
         ___else_lbl00005   0x000e32    program     static                          
         ___else_lbl00059   0x0004a8    program     static                          
         ___else_lbl00061   0x0004ae    program     static                          
          ___for_lbl00044   0x00039e    program     static                          
          ___for_lbl00045   0x0003a4    program     static                          
          ___for_lbl00046   0x000382    program     static                          
          ___for_lbl00056   0x0004b6    program     static                          
          ___for_lbl00057   0x0004bc    program     static                          
          ___for_lbl00062   0x000476    program     static                          
          ___for_lbl00063   0x000502    program     static                          
          ___for_lbl00064   0x000508    program     static                          
          ___for_lbl00065   0x0004ce    program     static                          
          ___for_lbl00067   0x00054e    program     static                          
          ___for_lbl00068   0x000554    program     static                          
          ___for_lbl00069   0x00051a    program     static                          
           ___if_lbl00004   0x000e34    program     static                          
           ___if_lbl00006   0x000e58    program     static                          
           ___if_lbl00008   0x000e74    program     static                          
           ___if_lbl00012   0x000e94    program     static                          
           ___if_lbl00049   0x0003fe    program     static                          
           ___if_lbl00050   0x000408    program     static                          
           ___if_lbl00058   0x0004ac    program     static                          
           ___if_lbl00060   0x0004b6    program     static                          
           ___if_lbl00077   0x0005aa    program     static                          
       ___return_lbl00000   0x000004    program     static                          
       ___return_lbl00001   0x00000c    program     static                          
       ___return_lbl00002   0x000020    program     static                          
       ___return_lbl00003   0x000e5c    program     static                          
       ___return_lbl00007   0x000e96    program     static                          
       ___return_lbl00018   0x000d86    program     static                          
       ___return_lbl00019   0x001004    program     static                          
       ___return_lbl00034   0x000e26    program     static                          
       ___return_lbl00043   0x00040e    program     static                          
       ___return_lbl00051   0x00041a    program     static                          
       ___return_lbl00055   0x000508    program     static                          
       ___return_lbl00066   0x000554    program     static                          
       ___return_lbl00074   0x0005ba    program     static                          
       ___return_lbl00080   0x0005be    program     static                          
       ___return_lbl00081   0x0005c2    program     static                          
        ___while_lbl00009   0x000e76    program     static                          
        ___while_lbl00010   0x000e96    program     static                          
        ___while_lbl00019   0x000d4a    program     static                          
        ___while_lbl00020   0x000d5a    program     static                          
        ___while_lbl00022   0x000d6c    program     static                          
        ___while_lbl00023   0x000d86    program     static                          
        ___while_lbl00035   0x000e18    program     static                          
        ___while_lbl00036   0x000e26    program     static                          
        ___while_lbl00047   0x0003d4    program     static                          
        ___while_lbl00048   0x00040e    program     static                          
        ___while_lbl00075   0x0005a4    program     static                          
        ___while_lbl00076   0x0005a8    program     static                          
        ___while_lbl00078   0x0005b4    program     static                          
        ___while_lbl00079   0x0005b8    program     static                          
               __config_0   0x300000    program     static E:\Projekte\Bontronic Projekte\esv\Firmware\Bootloader\main.c
               __config_1   0x300001    program     static E:\Projekte\Bontronic Projekte\esv\Firmware\Bootloader\main.c
              __config_10   0x30000c    program     static E:\Projekte\Bontronic Projekte\esv\Firmware\Bootloader\main.c
              __config_11   0x30000d    program     static E:\Projekte\Bontronic Projekte\esv\Firmware\Bootloader\main.c
               __config_2   0x300002    program     static E:\Projekte\Bontronic Projekte\esv\Firmware\Bootloader\main.c
               __config_3   0x300003    program     static E:\Projekte\Bontronic Projekte\esv\Firmware\Bootloader\main.c
               __config_4   0x300005    program     static E:\Projekte\Bontronic Projekte\esv\Firmware\Bootloader\main.c
               __config_5   0x300006    program     static E:\Projekte\Bontronic Projekte\esv\Firmware\Bootloader\main.c
               __config_6   0x300008    program     static E:\Projekte\Bontronic Projekte\esv\Firmware\Bootloader\main.c
               __config_7   0x300009    program     static E:\Projekte\Bontronic Projekte\esv\Firmware\Bootloader\main.c
               __config_8   0x30000a    program     static E:\Projekte\Bontronic Projekte\esv\Firmware\Bootloader\main.c
               __config_9   0x30000b    program     static E:\Projekte\Bontronic Projekte\esv\Firmware\Bootloader\main.c
                   __pa_0   0x000ac0    program     static E:\Projekte\Bontronic Projekte\esv\Firmware\Bootloader\usb9.c
                   __pa_0   0x0005c4    program     static E:\Projekte\Bontronic Projekte\esv\Firmware\Bootloader\BootPIC18NonJ.c
                   __pa_0   0x000cc0    program     static E:\Projekte\Bontronic Projekte\esv\Firmware\Bootloader\hid.c
                   __pa_0   0x000874    program     static E:\Projekte\Bontronic Projekte\esv\Firmware\Bootloader\usbctrltrf.c
                   __pa_1   0x000ad8    program     static E:\Projekte\Bontronic Projekte\esv\Firmware\Bootloader\usb9.c
                   __pa_1   0x0005d4    program     static E:\Projekte\Bontronic Projekte\esv\Firmware\Bootloader\BootPIC18NonJ.c
                   __pa_1   0x00088a    program     static E:\Projekte\Bontronic Projekte\esv\Firmware\Bootloader\usbctrltrf.c
                   __pa_2   0x000aea    program     static E:\Projekte\Bontronic Projekte\esv\Firmware\Bootloader\usb9.c
                   __pa_2   0x00089a    program     static E:\Projekte\Bontronic Projekte\esv\Firmware\Bootloader\usbctrltrf.c
                   __pa_2   0x0005de    program     static E:\Projekte\Bontronic Projekte\esv\Firmware\Bootloader\BootPIC18NonJ.c
                   __pa_3   0x000afc    program     static E:\Projekte\Bontronic Projekte\esv\Firmware\Bootloader\usb9.c
                   __pa_4   0x000b0c    program     static E:\Projekte\Bontronic Projekte\esv\Firmware\Bootloader\usb9.c
                   __pa_5   0x000b14    program     static E:\Projekte\Bontronic Projekte\esv\Firmware\Bootloader\usb9.c
               __tmplbl_0   0x000d56    program     static                          
               __tmplbl_0   0x000e90    program     static                          
               __tmplbl_1   0x000e8a    program     static                          
               __tmplbl_1   0x000d50    program     static                          
            __zero_memory   0x000f84    program     extern E:\3.46\pic18-lt\cxx-framework\src\traditional\proc\p18f14k50.asm
                   _entry   0x000000    program     extern E:\Projekte\Bontronic Projekte\esv\Firmware\Bootloader\main.c
                    cfg01   0x000eea    program     extern E:\Projekte\Bontronic Projekte\esv\Firmware\Bootloader\usbdsc.c
                compare_l   0x000f9a    program     static E:\3.46\pic18-lt\cxx-framework\src\traditional\proc\p18f14k50.asm
               device_dsc   0x000ed8    program     extern E:\Projekte\Bontronic Projekte\esv\Firmware\Bootloader\usbdsc.c
                hid_rpt01   0x000f5b    program     extern E:\Projekte\Bontronic Projekte\esv\Firmware\Bootloader\usbdsc.c
 interrupt_at_high_vector   0x000008    program     extern E:\Projekte\Bontronic Projekte\esv\Firmware\Bootloader\main.c
  interrupt_at_low_vector   0x000018    program     extern E:\Projekte\Bontronic Projekte\esv\Firmware\Bootloader\main.c
                   loop_h   0x000f92    program     static E:\3.46\pic18-lt\cxx-framework\src\traditional\proc\p18f14k50.asm
                   loop_l   0x000f9c    program     static E:\3.46\pic18-lt\cxx-framework\src\traditional\proc\p18f14k50.asm
                    sd000   0x000f13    program     extern E:\Projekte\Bontronic Projekte\esv\Firmware\Bootloader\usbdsc.c
                    sd001   0x000f17    program     extern E:\Projekte\Bontronic Projekte\esv\Firmware\Bootloader\usbdsc.c
                    sd002   0x000f35    program     extern E:\Projekte\Bontronic Projekte\esv\Firmware\Bootloader\usbdsc.c
                  userApp   0x001000    program     extern E:\Projekte\Bontronic Projekte\esv\Firmware\Bootloader\main.c
               zero_block   0x000f92    program     static E:\3.46\pic18-lt\cxx-framework\src\traditional\proc\p18f14k50.asm
                   ADCON0   0x000fc2       data     extern E:\3.46\pic18-lt\cxx-framework\src\traditional\proc\p18f14k50.asm
               ADCON0bits   0x000fc2       data     extern E:\3.46\pic18-lt\cxx-framework\src\traditional\proc\p18f14k50.asm
                   ADCON1   0x000fc1       data     extern E:\3.46\pic18-lt\cxx-framework\src\traditional\proc\p18f14k50.asm
               ADCON1bits   0x000fc1       data     extern E:\3.46\pic18-lt\cxx-framework\src\traditional\proc\p18f14k50.asm
                   ADCON2   0x000fc0       data     extern E:\3.46\pic18-lt\cxx-framework\src\traditional\proc\p18f14k50.asm
               ADCON2bits   0x000fc0       data     extern E:\3.46\pic18-lt\cxx-framework\src\traditional\proc\p18f14k50.asm
                    ADRES   0x000fc3       data     extern E:\3.46\pic18-lt\cxx-framework\src\traditional\proc\p18f14k50.asm
                   ADRESH   0x000fc4       data     extern E:\3.46\pic18-lt\cxx-framework\src\traditional\proc\p18f14k50.asm
                   ADRESL   0x000fc3       data     extern E:\3.46\pic18-lt\cxx-framework\src\traditional\proc\p18f14k50.asm
                    ANSEL   0x000f7e       data     extern E:\3.46\pic18-lt\cxx-framework\src\traditional\proc\p18f14k50.asm
                   ANSELH   0x000f7f       data     extern E:\3.46\pic18-lt\cxx-framework\src\traditional\proc\p18f14k50.asm
               ANSELHbits   0x000f7f       data     extern E:\3.46\pic18-lt\cxx-framework\src\traditional\proc\p18f14k50.asm
                ANSELbits   0x000f7e       data     extern E:\3.46\pic18-lt\cxx-framework\src\traditional\proc\p18f14k50.asm
                  BAUDCON   0x000fb8       data     extern E:\3.46\pic18-lt\cxx-framework\src\traditional\proc\p18f14k50.asm
              BAUDCONbits   0x000fb8       data     extern E:\3.46\pic18-lt\cxx-framework\src\traditional\proc\p18f14k50.asm
                  BAUDCTL   0x000fb8       data     extern E:\3.46\pic18-lt\cxx-framework\src\traditional\proc\p18f14k50.asm
              BAUDCTLbits   0x000fb8       data     extern E:\3.46\pic18-lt\cxx-framework\src\traditional\proc\p18f14k50.asm
                      BSR   0x000fe0       data     extern E:\3.46\pic18-lt\cxx-framework\src\traditional\proc\p18f14k50.asm
                BootState   0x0000e4       data     extern E:\Projekte\Bontronic Projekte\esv\Firmware\Bootloader\BootPIC18NonJ.c
        BufferedDataIndex   0x0000e7       data     extern E:\Projekte\Bontronic Projekte\esv\Firmware\Bootloader\BootPIC18NonJ.c
     BytesTakenFromBuffer   0x0000ef       data     static E:\Projekte\Bontronic Projekte\esv\Firmware\Bootloader\BootPIC18NonJ.c
                  CCP1CON   0x000fbd       data     extern E:\3.46\pic18-lt\cxx-framework\src\traditional\proc\p18f14k50.asm
              CCP1CONbits   0x000fbd       data     extern E:\3.46\pic18-lt\cxx-framework\src\traditional\proc\p18f14k50.asm
                    CCPR1   0x000fbe       data     extern E:\3.46\pic18-lt\cxx-framework\src\traditional\proc\p18f14k50.asm
                   CCPR1H   0x000fbf       data     extern E:\3.46\pic18-lt\cxx-framework\src\traditional\proc\p18f14k50.asm
                   CCPR1L   0x000fbe       data     extern E:\3.46\pic18-lt\cxx-framework\src\traditional\proc\p18f14k50.asm
                  CM1CON0   0x000f6d       data     extern E:\3.46\pic18-lt\cxx-framework\src\traditional\proc\p18f14k50.asm
              CM1CON0bits   0x000f6d       data     extern E:\3.46\pic18-lt\cxx-framework\src\traditional\proc\p18f14k50.asm
                  CM2CON0   0x000f6b       data     extern E:\3.46\pic18-lt\cxx-framework\src\traditional\proc\p18f14k50.asm
              CM2CON0bits   0x000f6b       data     extern E:\3.46\pic18-lt\cxx-framework\src\traditional\proc\p18f14k50.asm
                  CM2CON1   0x000f6c       data     extern E:\3.46\pic18-lt\cxx-framework\src\traditional\proc\p18f14k50.asm
              CM2CON1bits   0x000f6c       data     extern E:\3.46\pic18-lt\cxx-framework\src\traditional\proc\p18f14k50.asm
         ConfigsLockValue   0x0000eb       data     extern E:\Projekte\Bontronic Projekte\esv\Firmware\Bootloader\BootPIC18NonJ.c
         CorrectionFactor   0x0000f0       data     static E:\Projekte\Bontronic Projekte\esv\Firmware\Bootloader\BootPIC18NonJ.c
              CtrlTrfData   0x000218       data     extern E:\Projekte\Bontronic Projekte\esv\Firmware\Bootloader\usbmmap.c
                     DDRA   0x000f92       data     extern E:\3.46\pic18-lt\cxx-framework\src\traditional\proc\p18f14k50.asm
                 DDRAbits   0x000f92       data     extern E:\3.46\pic18-lt\cxx-framework\src\traditional\proc\p18f14k50.asm
                     DDRB   0x000f93       data     extern E:\3.46\pic18-lt\cxx-framework\src\traditional\proc\p18f14k50.asm
                 DDRBbits   0x000f93       data     extern E:\3.46\pic18-lt\cxx-framework\src\traditional\proc\p18f14k50.asm
                     DDRC   0x000f94       data     extern E:\3.46\pic18-lt\cxx-framework\src\traditional\proc\p18f14k50.asm
                 DDRCbits   0x000f94       data     extern E:\3.46\pic18-lt\cxx-framework\src\traditional\proc\p18f14k50.asm
                  ECCP1AS   0x000fb6       data     extern E:\3.46\pic18-lt\cxx-framework\src\traditional\proc\p18f14k50.asm
              ECCP1ASbits   0x000fb6       data     extern E:\3.46\pic18-lt\cxx-framework\src\traditional\proc\p18f14k50.asm
                    EEADR   0x000fa9       data     extern E:\3.46\pic18-lt\cxx-framework\src\traditional\proc\p18f14k50.asm
                EEADRbits   0x000fa9       data     extern E:\3.46\pic18-lt\cxx-framework\src\traditional\proc\p18f14k50.asm
                   EECON1   0x000fa6       data     extern E:\3.46\pic18-lt\cxx-framework\src\traditional\proc\p18f14k50.asm
               EECON1bits   0x000fa6       data     extern E:\3.46\pic18-lt\cxx-framework\src\traditional\proc\p18f14k50.asm
                   EECON2   0x000fa7       data     extern E:\3.46\pic18-lt\cxx-framework\src\traditional\proc\p18f14k50.asm
                   EEDATA   0x000fa8       data     extern E:\3.46\pic18-lt\cxx-framework\src\traditional\proc\p18f14k50.asm
         ErasePageTracker   0x0000e5       data     extern E:\Projekte\Bontronic Projekte\esv\Firmware\Bootloader\BootPIC18NonJ.c
                     FSR0   0x000fe9       data     extern E:\3.46\pic18-lt\cxx-framework\src\traditional\proc\p18f14k50.asm
                    FSR0H   0x000fea       data     extern E:\3.46\pic18-lt\cxx-framework\src\traditional\proc\p18f14k50.asm
                    FSR0L   0x000fe9       data     extern E:\3.46\pic18-lt\cxx-framework\src\traditional\proc\p18f14k50.asm
                     FSR1   0x000fe1       data     extern E:\3.46\pic18-lt\cxx-framework\src\traditional\proc\p18f14k50.asm
                    FSR1H   0x000fe2       data     extern E:\3.46\pic18-lt\cxx-framework\src\traditional\proc\p18f14k50.asm
                    FSR1L   0x000fe1       data     extern E:\3.46\pic18-lt\cxx-framework\src\traditional\proc\p18f14k50.asm
                     FSR2   0x000fd9       data     extern E:\3.46\pic18-lt\cxx-framework\src\traditional\proc\p18f14k50.asm
                    FSR2H   0x000fda       data     extern E:\3.46\pic18-lt\cxx-framework\src\traditional\proc\p18f14k50.asm
                    FSR2L   0x000fd9       data     extern E:\3.46\pic18-lt\cxx-framework\src\traditional\proc\p18f14k50.asm
                    INDF0   0x000fef       data     extern E:\3.46\pic18-lt\cxx-framework\src\traditional\proc\p18f14k50.asm
                    INDF1   0x000fe7       data     extern E:\3.46\pic18-lt\cxx-framework\src\traditional\proc\p18f14k50.asm
                    INDF2   0x000fdf       data     extern E:\3.46\pic18-lt\cxx-framework\src\traditional\proc\p18f14k50.asm
                   INTCON   0x000ff2       data     extern E:\3.46\pic18-lt\cxx-framework\src\traditional\proc\p18f14k50.asm
                  INTCON2   0x000ff1       data     extern E:\3.46\pic18-lt\cxx-framework\src\traditional\proc\p18f14k50.asm
              INTCON2bits   0x000ff1       data     extern E:\3.46\pic18-lt\cxx-framework\src\traditional\proc\p18f14k50.asm
                  INTCON3   0x000ff0       data     extern E:\3.46\pic18-lt\cxx-framework\src\traditional\proc\p18f14k50.asm
              INTCON3bits   0x000ff0       data     extern E:\3.46\pic18-lt\cxx-framework\src\traditional\proc\p18f14k50.asm
               INTCONbits   0x000ff2       data     extern E:\3.46\pic18-lt\cxx-framework\src\traditional\proc\p18f14k50.asm
                     IOCA   0x000f79       data     extern E:\3.46\pic18-lt\cxx-framework\src\traditional\proc\p18f14k50.asm
                 IOCAbits   0x000f79       data     extern E:\3.46\pic18-lt\cxx-framework\src\traditional\proc\p18f14k50.asm
                     IOCB   0x000f7a       data     extern E:\3.46\pic18-lt\cxx-framework\src\traditional\proc\p18f14k50.asm
                 IOCBbits   0x000f7a       data     extern E:\3.46\pic18-lt\cxx-framework\src\traditional\proc\p18f14k50.asm
                     IPR1   0x000f9f       data     extern E:\3.46\pic18-lt\cxx-framework\src\traditional\proc\p18f14k50.asm
                 IPR1bits   0x000f9f       data     extern E:\3.46\pic18-lt\cxx-framework\src\traditional\proc\p18f14k50.asm
                     IPR2   0x000fa2       data     extern E:\3.46\pic18-lt\cxx-framework\src\traditional\proc\p18f14k50.asm
                 IPR2bits   0x000fa2       data     extern E:\3.46\pic18-lt\cxx-framework\src\traditional\proc\p18f14k50.asm
                     LATA   0x000f89       data     extern E:\3.46\pic18-lt\cxx-framework\src\traditional\proc\p18f14k50.asm
                 LATAbits   0x000f89       data     extern E:\3.46\pic18-lt\cxx-framework\src\traditional\proc\p18f14k50.asm
                     LATB   0x000f8a       data     extern E:\3.46\pic18-lt\cxx-framework\src\traditional\proc\p18f14k50.asm
                 LATBbits   0x000f8a       data     extern E:\3.46\pic18-lt\cxx-framework\src\traditional\proc\p18f14k50.asm
                     LATC   0x000f8b       data     extern E:\3.46\pic18-lt\cxx-framework\src\traditional\proc\p18f14k50.asm
                 LATCbits   0x000f8b       data     extern E:\3.46\pic18-lt\cxx-framework\src\traditional\proc\p18f14k50.asm
                   OSCCON   0x000fd3       data     extern E:\3.46\pic18-lt\cxx-framework\src\traditional\proc\p18f14k50.asm
                  OSCCON2   0x000fd2       data     extern E:\3.46\pic18-lt\cxx-framework\src\traditional\proc\p18f14k50.asm
              OSCCON2bits   0x000fd2       data     extern E:\3.46\pic18-lt\cxx-framework\src\traditional\proc\p18f14k50.asm
               OSCCONbits   0x000fd3       data     extern E:\3.46\pic18-lt\cxx-framework\src\traditional\proc\p18f14k50.asm
                  OSCTUNE   0x000f9b       data     extern E:\3.46\pic18-lt\cxx-framework\src\traditional\proc\p18f14k50.asm
              OSCTUNEbits   0x000f9b       data     extern E:\3.46\pic18-lt\cxx-framework\src\traditional\proc\p18f14k50.asm
                       PC   0x000ff9       data     extern E:\3.46\pic18-lt\cxx-framework\src\traditional\proc\p18f14k50.asm
                      PCL   0x000ff9       data     extern E:\3.46\pic18-lt\cxx-framework\src\traditional\proc\p18f14k50.asm
                   PCLATH   0x000ffa       data     extern E:\3.46\pic18-lt\cxx-framework\src\traditional\proc\p18f14k50.asm
                   PCLATU   0x000ffb       data     extern E:\3.46\pic18-lt\cxx-framework\src\traditional\proc\p18f14k50.asm
                     PIE1   0x000f9d       data     extern E:\3.46\pic18-lt\cxx-framework\src\traditional\proc\p18f14k50.asm
                 PIE1bits   0x000f9d       data     extern E:\3.46\pic18-lt\cxx-framework\src\traditional\proc\p18f14k50.asm
                     PIE2   0x000fa0       data     extern E:\3.46\pic18-lt\cxx-framework\src\traditional\proc\p18f14k50.asm
                 PIE2bits   0x000fa0       data     extern E:\3.46\pic18-lt\cxx-framework\src\traditional\proc\p18f14k50.asm
                     PIR1   0x000f9e       data     extern E:\3.46\pic18-lt\cxx-framework\src\traditional\proc\p18f14k50.asm
                 PIR1bits   0x000f9e       data     extern E:\3.46\pic18-lt\cxx-framework\src\traditional\proc\p18f14k50.asm
                     PIR2   0x000fa1       data     extern E:\3.46\pic18-lt\cxx-framework\src\traditional\proc\p18f14k50.asm
                 PIR2bits   0x000fa1       data     extern E:\3.46\pic18-lt\cxx-framework\src\traditional\proc\p18f14k50.asm
                   PLUSW0   0x000feb       data     extern E:\3.46\pic18-lt\cxx-framework\src\traditional\proc\p18f14k50.asm
                   PLUSW1   0x000fe3       data     extern E:\3.46\pic18-lt\cxx-framework\src\traditional\proc\p18f14k50.asm
                   PLUSW2   0x000fdb       data     extern E:\3.46\pic18-lt\cxx-framework\src\traditional\proc\p18f14k50.asm
                    PORTA   0x000f80       data     extern E:\3.46\pic18-lt\cxx-framework\src\traditional\proc\p18f14k50.asm
                PORTAbits   0x000f80       data     extern E:\3.46\pic18-lt\cxx-framework\src\traditional\proc\p18f14k50.asm
                    PORTB   0x000f81       data     extern E:\3.46\pic18-lt\cxx-framework\src\traditional\proc\p18f14k50.asm
                PORTBbits   0x000f81       data     extern E:\3.46\pic18-lt\cxx-framework\src\traditional\proc\p18f14k50.asm
                    PORTC   0x000f82       data     extern E:\3.46\pic18-lt\cxx-framework\src\traditional\proc\p18f14k50.asm
                PORTCbits   0x000f82       data     extern E:\3.46\pic18-lt\cxx-framework\src\traditional\proc\p18f14k50.asm
                 POSTDEC0   0x000fed       data     extern E:\3.46\pic18-lt\cxx-framework\src\traditional\proc\p18f14k50.asm
                 POSTDEC1   0x000fe5       data     extern E:\3.46\pic18-lt\cxx-framework\src\traditional\proc\p18f14k50.asm
                 POSTDEC2   0x000fdd       data     extern E:\3.46\pic18-lt\cxx-framework\src\traditional\proc\p18f14k50.asm
                 POSTINC0   0x000fee       data     extern E:\3.46\pic18-lt\cxx-framework\src\traditional\proc\p18f14k50.asm
                 POSTINC1   0x000fe6       data     extern E:\3.46\pic18-lt\cxx-framework\src\traditional\proc\p18f14k50.asm
                 POSTINC2   0x000fde       data     extern E:\3.46\pic18-lt\cxx-framework\src\traditional\proc\p18f14k50.asm
                      PR2   0x000fcb       data     extern E:\3.46\pic18-lt\cxx-framework\src\traditional\proc\p18f14k50.asm
                  PREINC0   0x000fec       data     extern E:\3.46\pic18-lt\cxx-framework\src\traditional\proc\p18f14k50.asm
                  PREINC1   0x000fe4       data     extern E:\3.46\pic18-lt\cxx-framework\src\traditional\proc\p18f14k50.asm
                  PREINC2   0x000fdc       data     extern E:\3.46\pic18-lt\cxx-framework\src\traditional\proc\p18f14k50.asm
                     PROD   0x000ff3       data     extern E:\3.46\pic18-lt\cxx-framework\src\traditional\proc\p18f14k50.asm
                    PRODH   0x000ff4       data     extern E:\3.46\pic18-lt\cxx-framework\src\traditional\proc\p18f14k50.asm
                    PRODL   0x000ff3       data     extern E:\3.46\pic18-lt\cxx-framework\src\traditional\proc\p18f14k50.asm
                  PSTRCON   0x000fb9       data     extern E:\3.46\pic18-lt\cxx-framework\src\traditional\proc\p18f14k50.asm
              PSTRCONbits   0x000fb9       data     extern E:\3.46\pic18-lt\cxx-framework\src\traditional\proc\p18f14k50.asm
                  PWM1CON   0x000fb7       data     extern E:\3.46\pic18-lt\cxx-framework\src\traditional\proc\p18f14k50.asm
              PWM1CONbits   0x000fb7       data     extern E:\3.46\pic18-lt\cxx-framework\src\traditional\proc\p18f14k50.asm
             PacketFromPC   0x000060       data     extern E:\Projekte\Bontronic Projekte\esv\Firmware\Bootloader\BootPIC18NonJ.c
               PacketToPC   0x0002a0       data     extern E:\Projekte\Bontronic Projekte\esv\Firmware\Bootloader\BootPIC18NonJ.c
    ProgramMemStopAddress   0x0000e1       data     extern E:\Projekte\Bontronic Projekte\esv\Firmware\Bootloader\BootPIC18NonJ.c
        ProgrammedPointer   0x0000e8       data     extern E:\Projekte\Bontronic Projekte\esv\Firmware\Bootloader\BootPIC18NonJ.c
        ProgrammingBuffer   0x0000a1       data     extern E:\Projekte\Bontronic Projekte\esv\Firmware\Bootloader\BootPIC18NonJ.c
                     RCON   0x000fd0       data     extern E:\3.46\pic18-lt\cxx-framework\src\traditional\proc\p18f14k50.asm
                 RCONbits   0x000fd0       data     extern E:\3.46\pic18-lt\cxx-framework\src\traditional\proc\p18f14k50.asm
                    RCREG   0x000fae       data     extern E:\3.46\pic18-lt\cxx-framework\src\traditional\proc\p18f14k50.asm
                    RCSTA   0x000fab       data     extern E:\3.46\pic18-lt\cxx-framework\src\traditional\proc\p18f14k50.asm
                RCSTAbits   0x000fab       data     extern E:\3.46\pic18-lt\cxx-framework\src\traditional\proc\p18f14k50.asm
                  REFCON0   0x000fba       data     extern E:\3.46\pic18-lt\cxx-framework\src\traditional\proc\p18f14k50.asm
              REFCON0bits   0x000fba       data     extern E:\3.46\pic18-lt\cxx-framework\src\traditional\proc\p18f14k50.asm
                  REFCON1   0x000fbb       data     extern E:\3.46\pic18-lt\cxx-framework\src\traditional\proc\p18f14k50.asm
              REFCON1bits   0x000fbb       data     extern E:\3.46\pic18-lt\cxx-framework\src\traditional\proc\p18f14k50.asm
                  REFCON2   0x000fbc       data     extern E:\3.46\pic18-lt\cxx-framework\src\traditional\proc\p18f14k50.asm
              REFCON2bits   0x000fbc       data     extern E:\3.46\pic18-lt\cxx-framework\src\traditional\proc\p18f14k50.asm
                   SLRCON   0x000f76       data     extern E:\3.46\pic18-lt\cxx-framework\src\traditional\proc\p18f14k50.asm
               SLRCONbits   0x000f76       data     extern E:\3.46\pic18-lt\cxx-framework\src\traditional\proc\p18f14k50.asm
                    SPBRG   0x000faf       data     extern E:\3.46\pic18-lt\cxx-framework\src\traditional\proc\p18f14k50.asm
                   SPBRGH   0x000fb0       data     extern E:\3.46\pic18-lt\cxx-framework\src\traditional\proc\p18f14k50.asm
                   SRCON0   0x000f68       data     extern E:\3.46\pic18-lt\cxx-framework\src\traditional\proc\p18f14k50.asm
               SRCON0bits   0x000f68       data     extern E:\3.46\pic18-lt\cxx-framework\src\traditional\proc\p18f14k50.asm
                   SRCON1   0x000f69       data     extern E:\3.46\pic18-lt\cxx-framework\src\traditional\proc\p18f14k50.asm
               SRCON1bits   0x000f69       data     extern E:\3.46\pic18-lt\cxx-framework\src\traditional\proc\p18f14k50.asm
                   SSPADD   0x000fc8       data     extern E:\3.46\pic18-lt\cxx-framework\src\traditional\proc\p18f14k50.asm
                   SSPBUF   0x000fc9       data     extern E:\3.46\pic18-lt\cxx-framework\src\traditional\proc\p18f14k50.asm
                  SSPCON1   0x000fc6       data     extern E:\3.46\pic18-lt\cxx-framework\src\traditional\proc\p18f14k50.asm
              SSPCON1bits   0x000fc6       data     extern E:\3.46\pic18-lt\cxx-framework\src\traditional\proc\p18f14k50.asm
                  SSPCON2   0x000fc5       data     extern E:\3.46\pic18-lt\cxx-framework\src\traditional\proc\p18f14k50.asm
              SSPCON2bits   0x000fc5       data     extern E:\3.46\pic18-lt\cxx-framework\src\traditional\proc\p18f14k50.asm
                   SSPMSK   0x000f6f       data     extern E:\3.46\pic18-lt\cxx-framework\src\traditional\proc\p18f14k50.asm
               SSPMSKbits   0x000f6f       data     extern E:\3.46\pic18-lt\cxx-framework\src\traditional\proc\p18f14k50.asm
                  SSPSTAT   0x000fc7       data     extern E:\3.46\pic18-lt\cxx-framework\src\traditional\proc\p18f14k50.asm
              SSPSTATbits   0x000fc7       data     extern E:\3.46\pic18-lt\cxx-framework\src\traditional\proc\p18f14k50.asm
                   STATUS   0x000fd8       data     extern E:\3.46\pic18-lt\cxx-framework\src\traditional\proc\p18f14k50.asm
               STATUSbits   0x000fd8       data     extern E:\3.46\pic18-lt\cxx-framework\src\traditional\proc\p18f14k50.asm
                   STKPTR   0x000ffc       data     extern E:\3.46\pic18-lt\cxx-framework\src\traditional\proc\p18f14k50.asm
               STKPTRbits   0x000ffc       data     extern E:\3.46\pic18-lt\cxx-framework\src\traditional\proc\p18f14k50.asm
                 SetupPkt   0x000210       data     extern E:\Projekte\Bontronic Projekte\esv\Firmware\Bootloader\usbmmap.c
                    T0CON   0x000fd5       data     extern E:\3.46\pic18-lt\cxx-framework\src\traditional\proc\p18f14k50.asm
                T0CONbits   0x000fd5       data     extern E:\3.46\pic18-lt\cxx-framework\src\traditional\proc\p18f14k50.asm
                    T1CON   0x000fcd       data     extern E:\3.46\pic18-lt\cxx-framework\src\traditional\proc\p18f14k50.asm
                T1CONbits   0x000fcd       data     extern E:\3.46\pic18-lt\cxx-framework\src\traditional\proc\p18f14k50.asm
                    T2CON   0x000fca       data     extern E:\3.46\pic18-lt\cxx-framework\src\traditional\proc\p18f14k50.asm
                T2CONbits   0x000fca       data     extern E:\3.46\pic18-lt\cxx-framework\src\traditional\proc\p18f14k50.asm
                    T3CON   0x000fb1       data     extern E:\3.46\pic18-lt\cxx-framework\src\traditional\proc\p18f14k50.asm
                T3CONbits   0x000fb1       data     extern E:\3.46\pic18-lt\cxx-framework\src\traditional\proc\p18f14k50.asm
                   TABLAT   0x000ff5       data     extern E:\3.46\pic18-lt\cxx-framework\src\traditional\proc\p18f14k50.asm
                   TBLPTR   0x000ff6       data     extern E:\3.46\pic18-lt\cxx-framework\src\traditional\proc\p18f14k50.asm
                  TBLPTRH   0x000ff7       data     extern E:\3.46\pic18-lt\cxx-framework\src\traditional\proc\p18f14k50.asm
                  TBLPTRL   0x000ff6       data     extern E:\3.46\pic18-lt\cxx-framework\src\traditional\proc\p18f14k50.asm
                  TBLPTRU   0x000ff8       data     extern E:\3.46\pic18-lt\cxx-framework\src\traditional\proc\p18f14k50.asm
                    TMR0H   0x000fd7       data     extern E:\3.46\pic18-lt\cxx-framework\src\traditional\proc\p18f14k50.asm
                    TMR0L   0x000fd6       data     extern E:\3.46\pic18-lt\cxx-framework\src\traditional\proc\p18f14k50.asm
                    TMR1H   0x000fcf       data     extern E:\3.46\pic18-lt\cxx-framework\src\traditional\proc\p18f14k50.asm
                    TMR1L   0x000fce       data     extern E:\3.46\pic18-lt\cxx-framework\src\traditional\proc\p18f14k50.asm
                     TMR2   0x000fcc       data     extern E:\3.46\pic18-lt\cxx-framework\src\traditional\proc\p18f14k50.asm
                    TMR3H   0x000fb3       data     extern E:\3.46\pic18-lt\cxx-framework\src\traditional\proc\p18f14k50.asm
                    TMR3L   0x000fb2       data     extern E:\3.46\pic18-lt\cxx-framework\src\traditional\proc\p18f14k50.asm
                      TOS   0x000ffd       data     extern E:\3.46\pic18-lt\cxx-framework\src\traditional\proc\p18f14k50.asm
                     TOSH   0x000ffe       data     extern E:\3.46\pic18-lt\cxx-framework\src\traditional\proc\p18f14k50.asm
                     TOSL   0x000ffd       data     extern E:\3.46\pic18-lt\cxx-framework\src\traditional\proc\p18f14k50.asm
                     TOSU   0x000fff       data     extern E:\3.46\pic18-lt\cxx-framework\src\traditional\proc\p18f14k50.asm
                    TRISA   0x000f92       data     extern E:\3.46\pic18-lt\cxx-framework\src\traditional\proc\p18f14k50.asm
                TRISAbits   0x000f92       data     extern E:\3.46\pic18-lt\cxx-framework\src\traditional\proc\p18f14k50.asm
                    TRISB   0x000f93       data     extern E:\3.46\pic18-lt\cxx-framework\src\traditional\proc\p18f14k50.asm
                TRISBbits   0x000f93       data     extern E:\3.46\pic18-lt\cxx-framework\src\traditional\proc\p18f14k50.asm
                    TRISC   0x000f94       data     extern E:\3.46\pic18-lt\cxx-framework\src\traditional\proc\p18f14k50.asm
                TRISCbits   0x000f94       data     extern E:\3.46\pic18-lt\cxx-framework\src\traditional\proc\p18f14k50.asm
                    TXREG   0x000fad       data     extern E:\3.46\pic18-lt\cxx-framework\src\traditional\proc\p18f14k50.asm
                    TXSTA   0x000fac       data     extern E:\3.46\pic18-lt\cxx-framework\src\traditional\proc\p18f14k50.asm
                TXSTAbits   0x000fac       data     extern E:\3.46\pic18-lt\cxx-framework\src\traditional\proc\p18f14k50.asm
                    UADDR   0x000f5c       data     extern E:\3.46\pic18-lt\cxx-framework\src\traditional\proc\p18f14k50.asm
                UADDRbits   0x000f5c       data     extern E:\3.46\pic18-lt\cxx-framework\src\traditional\proc\p18f14k50.asm
                     UCFG   0x000f61       data     extern E:\3.46\pic18-lt\cxx-framework\src\traditional\proc\p18f14k50.asm
                 UCFGbits   0x000f61       data     extern E:\3.46\pic18-lt\cxx-framework\src\traditional\proc\p18f14k50.asm
                     UCON   0x000f64       data     extern E:\3.46\pic18-lt\cxx-framework\src\traditional\proc\p18f14k50.asm
                 UCONbits   0x000f64       data     extern E:\3.46\pic18-lt\cxx-framework\src\traditional\proc\p18f14k50.asm
                     UEIE   0x000f5b       data     extern E:\3.46\pic18-lt\cxx-framework\src\traditional\proc\p18f14k50.asm
                 UEIEbits   0x000f5b       data     extern E:\3.46\pic18-lt\cxx-framework\src\traditional\proc\p18f14k50.asm
                     UEIR   0x000f5f       data     extern E:\3.46\pic18-lt\cxx-framework\src\traditional\proc\p18f14k50.asm
                 UEIRbits   0x000f5f       data     extern E:\3.46\pic18-lt\cxx-framework\src\traditional\proc\p18f14k50.asm
                     UEP0   0x000f53       data     extern E:\3.46\pic18-lt\cxx-framework\src\traditional\proc\p18f14k50.asm
                 UEP0bits   0x000f53       data     extern E:\3.46\pic18-lt\cxx-framework\src\traditional\proc\p18f14k50.asm
                     UEP1   0x000f54       data     extern E:\3.46\pic18-lt\cxx-framework\src\traditional\proc\p18f14k50.asm
                 UEP1bits   0x000f54       data     extern E:\3.46\pic18-lt\cxx-framework\src\traditional\proc\p18f14k50.asm
                     UEP2   0x000f55       data     extern E:\3.46\pic18-lt\cxx-framework\src\traditional\proc\p18f14k50.asm
                 UEP2bits   0x000f55       data     extern E:\3.46\pic18-lt\cxx-framework\src\traditional\proc\p18f14k50.asm
                     UEP3   0x000f56       data     extern E:\3.46\pic18-lt\cxx-framework\src\traditional\proc\p18f14k50.asm
                 UEP3bits   0x000f56       data     extern E:\3.46\pic18-lt\cxx-framework\src\traditional\proc\p18f14k50.asm
                     UEP4   0x000f57       data     extern E:\3.46\pic18-lt\cxx-framework\src\traditional\proc\p18f14k50.asm
                 UEP4bits   0x000f57       data     extern E:\3.46\pic18-lt\cxx-framework\src\traditional\proc\p18f14k50.asm
                     UEP5   0x000f58       data     extern E:\3.46\pic18-lt\cxx-framework\src\traditional\proc\p18f14k50.asm
                 UEP5bits   0x000f58       data     extern E:\3.46\pic18-lt\cxx-framework\src\traditional\proc\p18f14k50.asm
                     UEP6   0x000f59       data     extern E:\3.46\pic18-lt\cxx-framework\src\traditional\proc\p18f14k50.asm
                 UEP6bits   0x000f59       data     extern E:\3.46\pic18-lt\cxx-framework\src\traditional\proc\p18f14k50.asm
                     UEP7   0x000f5a       data     extern E:\3.46\pic18-lt\cxx-framework\src\traditional\proc\p18f14k50.asm
                 UEP7bits   0x000f5a       data     extern E:\3.46\pic18-lt\cxx-framework\src\traditional\proc\p18f14k50.asm
                    UFRMH   0x000f5e       data     extern E:\3.46\pic18-lt\cxx-framework\src\traditional\proc\p18f14k50.asm
                UFRMHbits   0x000f5e       data     extern E:\3.46\pic18-lt\cxx-framework\src\traditional\proc\p18f14k50.asm
                    UFRML   0x000f5d       data     extern E:\3.46\pic18-lt\cxx-framework\src\traditional\proc\p18f14k50.asm
                UFRMLbits   0x000f5d       data     extern E:\3.46\pic18-lt\cxx-framework\src\traditional\proc\p18f14k50.asm
                      UIE   0x000f60       data     extern E:\3.46\pic18-lt\cxx-framework\src\traditional\proc\p18f14k50.asm
                  UIESave   0x0002f1       data     static E:\Projekte\Bontronic Projekte\esv\Firmware\Bootloader\usbdrv.c
                  UIEbits   0x000f60       data     extern E:\3.46\pic18-lt\cxx-framework\src\traditional\proc\p18f14k50.asm
                      UIR   0x000f62       data     extern E:\3.46\pic18-lt\cxx-framework\src\traditional\proc\p18f14k50.asm
                  UIRbits   0x000f62       data     extern E:\3.46\pic18-lt\cxx-framework\src\traditional\proc\p18f14k50.asm
                    USTAT   0x000f63       data     extern E:\3.46\pic18-lt\cxx-framework\src\traditional\proc\p18f14k50.asm
                USTATbits   0x000f63       data     extern E:\3.46\pic18-lt\cxx-framework\src\traditional\proc\p18f14k50.asm
                UnlockKey   0x0000f3       data     static E:\Projekte\Bontronic Projekte\esv\Firmware\Bootloader\BootPIC18NonJ.c
                 VREFCON0   0x000fba       data     extern E:\3.46\pic18-lt\cxx-framework\src\traditional\proc\p18f14k50.asm
             VREFCON0bits   0x000fba       data     extern E:\3.46\pic18-lt\cxx-framework\src\traditional\proc\p18f14k50.asm
                 VREFCON1   0x000fbb       data     extern E:\3.46\pic18-lt\cxx-framework\src\traditional\proc\p18f14k50.asm
             VREFCON1bits   0x000fbb       data     extern E:\3.46\pic18-lt\cxx-framework\src\traditional\proc\p18f14k50.asm
                 VREFCON2   0x000fbc       data     extern E:\3.46\pic18-lt\cxx-framework\src\traditional\proc\p18f14k50.asm
             VREFCON2bits   0x000fbc       data     extern E:\3.46\pic18-lt\cxx-framework\src\traditional\proc\p18f14k50.asm
                        W   0x000fe8       data     extern E:\3.46\pic18-lt\cxx-framework\src\traditional\proc\p18f14k50.asm
                   WDTCON   0x000fd1       data     extern E:\3.46\pic18-lt\cxx-framework\src\traditional\proc\p18f14k50.asm
               WDTCONbits   0x000fd1       data     extern E:\3.46\pic18-lt\cxx-framework\src\traditional\proc\p18f14k50.asm
                     WPUA   0x000f77       data     extern E:\3.46\pic18-lt\cxx-framework\src\traditional\proc\p18f14k50.asm
                 WPUAbits   0x000f77       data     extern E:\3.46\pic18-lt\cxx-framework\src\traditional\proc\p18f14k50.asm
                     WPUB   0x000f78       data     extern E:\3.46\pic18-lt\cxx-framework\src\traditional\proc\p18f14k50.asm
                 WPUBbits   0x000f78       data     extern E:\3.46\pic18-lt\cxx-framework\src\traditional\proc\p18f14k50.asm
                     WREG   0x000fe8       data     extern E:\3.46\pic18-lt\cxx-framework\src\traditional\proc\p18f14k50.asm
           __ClearArray:0   0x0002f2       data     extern E:\Projekte\Bontronic Projekte\esv\Firmware\Bootloader\usbdrv.c
           __ClearArray:1   0x0002f4       data     extern E:\Projekte\Bontronic Projekte\esv\Firmware\Bootloader\usbdrv.c
          __HIDRxReport:0   0x0000fb       data     extern E:\Projekte\Bontronic Projekte\esv\Firmware\Bootloader\hid.c
          __HIDRxReport:1   0x0000fd       data     extern E:\Projekte\Bontronic Projekte\esv\Firmware\Bootloader\hid.c
          __HIDTxReport:0   0x0000f7       data     extern E:\Projekte\Bontronic Projekte\esv\Firmware\Bootloader\hid.c
          __HIDTxReport:1   0x0000f9       data     extern E:\Projekte\Bontronic Projekte\esv\Firmware\Bootloader\hid.c
    __UnlockAndActivate:0   0x0000f3       data     extern E:\Projekte\Bontronic Projekte\esv\Firmware\Bootloader\BootPIC18NonJ.c
                  __tmp_0   0x000000       data     static E:\Projekte\Bontronic Projekte\esv\Firmware\Bootloader\usb9.c
                  __tmp_0   0x000000       data     static E:\Projekte\Bontronic Projekte\esv\Firmware\Bootloader\main.c
                  __tmp_0   0x000000       data     static E:\Projekte\Bontronic Projekte\esv\Firmware\Bootloader\usbctrltrf.c
                  __tmp_0   0x000000       data     static E:\Projekte\Bontronic Projekte\esv\Firmware\Bootloader\BootPIC18NonJ.c
                  __tmp_0   0x000000       data     static E:\Projekte\Bontronic Projekte\esv\Firmware\Bootloader\usbdrv.c
          active_protocol   0x0000f5       data     extern E:\Projekte\Bontronic Projekte\esv\Firmware\Bootloader\hid.c
              bTRNIFCount   0x0002f0       data     extern E:\Projekte\Bontronic Projekte\esv\Firmware\Bootloader\usbdrv.c
                   buffer   0x0000fb       data     static E:\Projekte\Bontronic Projekte\esv\Firmware\Bootloader\hid.c
                   buffer   0x0000f7       data     static E:\Projekte\Bontronic Projekte\esv\Firmware\Bootloader\hid.c
             byte_to_read   0x0002ee       data     static E:\Projekte\Bontronic Projekte\esv\Firmware\Bootloader\usbctrltrf.c
             byte_to_send   0x0002ec       data     static E:\Projekte\Bontronic Projekte\esv\Firmware\Bootloader\usbctrltrf.c
                    count   0x0002f4       data     static E:\Projekte\Bontronic Projekte\esv\Firmware\Bootloader\usbdrv.c
   ctrl_trf_session_owner   0x0002e2       data     extern E:\Projekte\Bontronic Projekte\esv\Firmware\Bootloader\usbctrltrf.c
           ctrl_trf_state   0x0002e1       data     extern E:\Projekte\Bontronic Projekte\esv\Firmware\Bootloader\usbctrltrf.c
                    ep0Bi   0x000204       data     extern E:\Projekte\Bontronic Projekte\esv\Firmware\Bootloader\usbmmap.c
                    ep0Bo   0x000200       data     extern E:\Projekte\Bontronic Projekte\esv\Firmware\Bootloader\usbmmap.c
                    ep1Bi   0x00020c       data     extern E:\Projekte\Bontronic Projekte\esv\Firmware\Bootloader\usbmmap.c
                    ep1Bo   0x000208       data     extern E:\Projekte\Bontronic Projekte\esv\Firmware\Bootloader\usbmmap.c
            hid_report_in   0x000260       data     extern E:\Projekte\Bontronic Projekte\esv\Firmware\Bootloader\usbmmap.c
           hid_report_out   0x000220       data     extern E:\Projekte\Bontronic Projekte\esv\Firmware\Bootloader\usbmmap.c
           hid_rpt_rx_len   0x0000f6       data     extern E:\Projekte\Bontronic Projekte\esv\Firmware\Bootloader\hid.c
                        i   0x0002eb       data     static E:\Projekte\Bontronic Projekte\esv\Firmware\Bootloader\usbctrltrf.c
                        i   0x0000ec       data     static E:\Projekte\Bontronic Projekte\esv\Firmware\Bootloader\BootPIC18NonJ.c
                        i   0x0000ed       data     static E:\Projekte\Bontronic Projekte\esv\Firmware\Bootloader\BootPIC18NonJ.c
                        i   0x0000fa       data     static E:\Projekte\Bontronic Projekte\esv\Firmware\Bootloader\hid.c
                        i   0x0000ee       data     static E:\Projekte\Bontronic Projekte\esv\Firmware\Bootloader\BootPIC18NonJ.c
                        i   0x0000f1       data     static E:\Projekte\Bontronic Projekte\esv\Firmware\Bootloader\BootPIC18NonJ.c
                        i   0x0000f2       data     static E:\Projekte\Bontronic Projekte\esv\Firmware\Bootloader\BootPIC18NonJ.c
                idle_rate   0x0000f4       data     extern E:\Projekte\Bontronic Projekte\esv\Firmware\Bootloader\hid.c
                led_count   0x0002f9       data     static E:\Projekte\Bontronic Projekte\esv\Firmware\Bootloader\main.c
                      len   0x0000f9       data     static E:\Projekte\Bontronic Projekte\esv\Firmware\Bootloader\hid.c
                      len   0x0000fd       data     static E:\Projekte\Bontronic Projekte\esv\Firmware\Bootloader\hid.c
                     pDst   0x0002e5       data     extern E:\Projekte\Bontronic Projekte\esv\Firmware\Bootloader\usbctrltrf.c
                     pSrc   0x0002e3       data     extern E:\Projekte\Bontronic Projekte\esv\Firmware\Bootloader\usbctrltrf.c
                setup_cnt   0x0002ea       data     static E:\Projekte\Bontronic Projekte\esv\Firmware\Bootloader\usbctrltrf.c
         short_pkt_status   0x0002e9       data     extern E:\Projekte\Bontronic Projekte\esv\Firmware\Bootloader\usbctrltrf.c
                 startAdr   0x0002f2       data     static E:\Projekte\Bontronic Projekte\esv\Firmware\Bootloader\usbdrv.c
       uint_delay_counter   0x0000fe       data     extern E:\Projekte\Bontronic Projekte\esv\Firmware\Bootloader\main.c
           usb_active_cfg   0x0002f7       data     extern E:\Projekte\Bontronic Projekte\esv\Firmware\Bootloader\usbmmap.c
             usb_alt_intf   0x0002f8       data     extern E:\Projekte\Bontronic Projekte\esv\Firmware\Bootloader\usbmmap.c
         usb_device_state   0x0002f5       data     extern E:\Projekte\Bontronic Projekte\esv\Firmware\Bootloader\usbmmap.c
                 usb_stat   0x0002f6       data     extern E:\Projekte\Bontronic Projekte\esv\Firmware\Bootloader\usbmmap.c
                   wCount   0x0002e7       data     extern E:\Projekte\Bontronic Projekte\esv\Firmware\Bootloader\usbctrltrf.c



                              Symbols - Sorted by Address
                     Name    Address   Location    Storage File                     
                ---------  ---------  ---------  --------- ---------                
                   _entry   0x000000    program     extern E:\Projekte\Bontronic Projekte\esv\Firmware\Bootloader\main.c
       ___return_lbl00000   0x000004    program     static                          
 interrupt_at_high_vector   0x000008    program     extern E:\Projekte\Bontronic Projekte\esv\Firmware\Bootloader\main.c
       ___return_lbl00001   0x00000c    program     static                          
  interrupt_at_low_vector   0x000018    program     extern E:\Projekte\Bontronic Projekte\esv\Firmware\Bootloader\main.c
       ___return_lbl00002   0x000020    program     static                          
                 UserInit   0x000030    program     extern E:\Projekte\Bontronic Projekte\esv\Firmware\Bootloader\BootPIC18NonJ.c
                ProcessIO   0x000042    program     extern E:\Projekte\Bontronic Projekte\esv\Firmware\Bootloader\BootPIC18NonJ.c
                SignFlash   0x000376    program     extern E:\Projekte\Bontronic Projekte\esv\Firmware\Bootloader\BootPIC18NonJ.c
          ___for_lbl00046   0x000382    program     static                          
          ___for_lbl00044   0x00039e    program     static                          
          ___for_lbl00045   0x0003a4    program     static                          
        ___while_lbl00047   0x0003d4    program     static                          
           ___if_lbl00049   0x0003fe    program     static                          
           ___if_lbl00050   0x000408    program     static                          
        ___while_lbl00048   0x00040e    program     static                          
       ___return_lbl00043   0x00040e    program     static                          
       ResetDeviceCleanly   0x000410    program     extern E:\Projekte\Bontronic Projekte\esv\Firmware\Bootloader\BootPIC18NonJ.c
       ___return_lbl00051   0x00041a    program     static                          
DisableUSBandExecuteLongDelay   0x00041c    program     extern E:\Projekte\Bontronic Projekte\esv\Firmware\Bootloader\BootPIC18NonJ.c
          WriteFlashBlock   0x000442    program     extern E:\Projekte\Bontronic Projekte\esv\Firmware\Bootloader\BootPIC18NonJ.c
          ___for_lbl00062   0x000476    program     static                          
         ___else_lbl00059   0x0004a8    program     static                          
           ___if_lbl00058   0x0004ac    program     static                          
         ___else_lbl00061   0x0004ae    program     static                          
          ___for_lbl00056   0x0004b6    program     static                          
           ___if_lbl00060   0x0004b6    program     static                          
          ___for_lbl00057   0x0004bc    program     static                          
          ___for_lbl00065   0x0004ce    program     static                          
          ___for_lbl00063   0x000502    program     static                          
          ___for_lbl00064   0x000508    program     static                          
       ___return_lbl00055   0x000508    program     static                          
          WriteConfigBits   0x00050a    program     extern E:\Projekte\Bontronic Projekte\esv\Firmware\Bootloader\BootPIC18NonJ.c
          ___for_lbl00069   0x00051a    program     static                          
          ___for_lbl00067   0x00054e    program     static                          
       ___return_lbl00066   0x000554    program     static                          
          ___for_lbl00068   0x000554    program     static                          
              WriteEEPROM   0x000556    program     extern E:\Projekte\Bontronic Projekte\esv\Firmware\Bootloader\BootPIC18NonJ.c
        UnlockAndActivate   0x000596    program     extern E:\Projekte\Bontronic Projekte\esv\Firmware\Bootloader\BootPIC18NonJ.c
        ___while_lbl00075   0x0005a4    program     static                          
        ___while_lbl00076   0x0005a8    program     static                          
           ___if_lbl00077   0x0005aa    program     static                          
        ___while_lbl00078   0x0005b4    program     static                          
        ___while_lbl00079   0x0005b8    program     static                          
       ___return_lbl00074   0x0005ba    program     static                          
            ClearWatchdog   0x0005bc    program     extern E:\Projekte\Bontronic Projekte\esv\Firmware\Bootloader\BootPIC18NonJ.c
       ___return_lbl00080   0x0005be    program     static                          
   TableReadPostIncrement   0x0005c0    program     extern E:\Projekte\Bontronic Projekte\esv\Firmware\Bootloader\BootPIC18NonJ.c
       ___return_lbl00081   0x0005c2    program     static                          
                   __pa_0   0x0005c4    program     static E:\Projekte\Bontronic Projekte\esv\Firmware\Bootloader\BootPIC18NonJ.c
                   __pa_1   0x0005d4    program     static E:\Projekte\Bontronic Projekte\esv\Firmware\Bootloader\BootPIC18NonJ.c
                   __pa_2   0x0005de    program     static E:\Projekte\Bontronic Projekte\esv\Firmware\Bootloader\BootPIC18NonJ.c
         USBCtrlEPService   0x0005ea    program     extern E:\Projekte\Bontronic Projekte\esv\Firmware\Bootloader\usbctrltrf.c
   USBCtrlTrfSetupHandler   0x000662    program     extern E:\Projekte\Bontronic Projekte\esv\Firmware\Bootloader\usbctrltrf.c
     USBCtrlTrfOutHandler   0x0006c6    program     extern E:\Projekte\Bontronic Projekte\esv\Firmware\Bootloader\usbctrltrf.c
      USBCtrlTrfInHandler   0x0006f4    program     extern E:\Projekte\Bontronic Projekte\esv\Firmware\Bootloader\usbctrltrf.c
      USBCtrlTrfTxService   0x00073e    program     extern E:\Projekte\Bontronic Projekte\esv\Firmware\Bootloader\usbctrltrf.c
      USBCtrlTrfRxService   0x0007c6    program     extern E:\Projekte\Bontronic Projekte\esv\Firmware\Bootloader\usbctrltrf.c
 USBCtrlEPServiceComplete   0x0007f8    program     extern E:\Projekte\Bontronic Projekte\esv\Firmware\Bootloader\usbctrltrf.c
USBPrepareForNextSetupTrf   0x00086a    program     extern E:\Projekte\Bontronic Projekte\esv\Firmware\Bootloader\usbctrltrf.c
                   __pa_0   0x000874    program     static E:\Projekte\Bontronic Projekte\esv\Firmware\Bootloader\usbctrltrf.c
                   __pa_1   0x00088a    program     static E:\Projekte\Bontronic Projekte\esv\Firmware\Bootloader\usbctrltrf.c
                   __pa_2   0x00089a    program     static E:\Projekte\Bontronic Projekte\esv\Firmware\Bootloader\usbctrltrf.c
       USBCheckStdRequest   0x0008a8    program     extern E:\Projekte\Bontronic Projekte\esv\Firmware\Bootloader\usb9.c
      USBStdGetDscHandler   0x000946    program     extern E:\Projekte\Bontronic Projekte\esv\Firmware\Bootloader\usb9.c
      USBStdSetCfgHandler   0x0009b4    program     extern E:\Projekte\Bontronic Projekte\esv\Firmware\Bootloader\usb9.c
   USBStdGetStatusHandler   0x0009f4    program     extern E:\Projekte\Bontronic Projekte\esv\Firmware\Bootloader\usb9.c
  USBStdFeatureReqHandler   0x000a54    program     extern E:\Projekte\Bontronic Projekte\esv\Firmware\Bootloader\usb9.c
                   __pa_0   0x000ac0    program     static E:\Projekte\Bontronic Projekte\esv\Firmware\Bootloader\usb9.c
                   __pa_1   0x000ad8    program     static E:\Projekte\Bontronic Projekte\esv\Firmware\Bootloader\usb9.c
                   __pa_2   0x000aea    program     static E:\Projekte\Bontronic Projekte\esv\Firmware\Bootloader\usb9.c
                   __pa_3   0x000afc    program     static E:\Projekte\Bontronic Projekte\esv\Firmware\Bootloader\usb9.c
                   __pa_4   0x000b0c    program     static E:\Projekte\Bontronic Projekte\esv\Firmware\Bootloader\usb9.c
                   __pa_5   0x000b14    program     static E:\Projekte\Bontronic Projekte\esv\Firmware\Bootloader\usb9.c
       USBCheckHIDRequest   0x000b1c    program     extern E:\Projekte\Bontronic Projekte\esv\Firmware\Bootloader\hid.c
      HIDGetReportHandler   0x000bea    program     extern E:\Projekte\Bontronic Projekte\esv\Firmware\Bootloader\hid.c
      HIDSetReportHandler   0x000bec    program     extern E:\Projekte\Bontronic Projekte\esv\Firmware\Bootloader\hid.c
                HIDInitEP   0x000bee    program     extern E:\Projekte\Bontronic Projekte\esv\Firmware\Bootloader\hid.c
              HIDTxReport   0x000c1a    program     extern E:\Projekte\Bontronic Projekte\esv\Firmware\Bootloader\hid.c
              HIDRxReport   0x000c66    program     extern E:\Projekte\Bontronic Projekte\esv\Firmware\Bootloader\hid.c
                   __pa_0   0x000cc0    program     static E:\Projekte\Bontronic Projekte\esv\Firmware\Bootloader\hid.c
        USBCheckBusStatus   0x000cc8    program     extern E:\Projekte\Bontronic Projekte\esv\Firmware\Bootloader\usbdrv.c
         USBDriverService   0x000cf0    program     extern E:\Projekte\Bontronic Projekte\esv\Firmware\Bootloader\usbdrv.c
               USBSuspend   0x000d36    program     extern E:\Projekte\Bontronic Projekte\esv\Firmware\Bootloader\usbdrv.c
        ___while_lbl00019   0x000d4a    program     static                          
               __tmplbl_1   0x000d50    program     static                          
               __tmplbl_0   0x000d56    program     static                          
        ___while_lbl00020   0x000d5a    program     static                          
        ___while_lbl00022   0x000d6c    program     static                          
       ___return_lbl00018   0x000d86    program     static                          
        ___while_lbl00023   0x000d86    program     static                          
       USBWakeFromSuspend   0x000d88    program     extern E:\Projekte\Bontronic Projekte\esv\Firmware\Bootloader\usbdrv.c
          USBStallHandler   0x000d96    program     extern E:\Projekte\Bontronic Projekte\esv\Firmware\Bootloader\usbdrv.c
  USBProtocolResetHandler   0x000dba    program     extern E:\Projekte\Bontronic Projekte\esv\Firmware\Bootloader\usbdrv.c
               ClearArray   0x000e10    program     extern E:\Projekte\Bontronic Projekte\esv\Firmware\Bootloader\usbdrv.c
        ___while_lbl00035   0x000e18    program     static                          
        ___while_lbl00036   0x000e26    program     static                          
       ___return_lbl00034   0x000e26    program     static                          
        UninitializedMain   0x000e28    program     extern E:\Projekte\Bontronic Projekte\esv\Firmware\Bootloader\main.c
         ___else_lbl00005   0x000e32    program     static                          
    DoFlashSignatureCheck   0x000e34    program     static                          
           ___if_lbl00004   0x000e34    program     static                          
           ___if_lbl00006   0x000e58    program     static                          
       ___return_lbl00003   0x000e5c    program     static                          
                 BootMain   0x000e5e    program     extern E:\Projekte\Bontronic Projekte\esv\Firmware\Bootloader\main.c
           ___if_lbl00008   0x000e74    program     static                          
        ___while_lbl00009   0x000e76    program     static                          
               __tmplbl_1   0x000e8a    program     static                          
               __tmplbl_0   0x000e90    program     static                          
           ___if_lbl00012   0x000e94    program     static                          
        ___while_lbl00010   0x000e96    program     static                          
       ___return_lbl00007   0x000e96    program     static                          
         InitializeSystem   0x000e98    program     static E:\Projekte\Bontronic Projekte\esv\Firmware\Bootloader\main.c
          LowVoltageCheck   0x000eb2    program     extern E:\Projekte\Bontronic Projekte\esv\Firmware\Bootloader\main.c
           BlinkUSBStatus   0x000eb4    program     extern E:\Projekte\Bontronic Projekte\esv\Firmware\Bootloader\main.c
               device_dsc   0x000ed8    program     extern E:\Projekte\Bontronic Projekte\esv\Firmware\Bootloader\usbdsc.c
                    cfg01   0x000eea    program     extern E:\Projekte\Bontronic Projekte\esv\Firmware\Bootloader\usbdsc.c
                    sd000   0x000f13    program     extern E:\Projekte\Bontronic Projekte\esv\Firmware\Bootloader\usbdsc.c
                    sd001   0x000f17    program     extern E:\Projekte\Bontronic Projekte\esv\Firmware\Bootloader\usbdsc.c
                    sd002   0x000f35    program     extern E:\Projekte\Bontronic Projekte\esv\Firmware\Bootloader\usbdsc.c
                hid_rpt01   0x000f5b    program     extern E:\Projekte\Bontronic Projekte\esv\Firmware\Bootloader\usbdsc.c
               USB_CD_Ptr   0x000f78    program     extern E:\Projekte\Bontronic Projekte\esv\Firmware\Bootloader\usbdsc.c
               USB_SD_Ptr   0x000f7c    program     extern E:\Projekte\Bontronic Projekte\esv\Firmware\Bootloader\usbdsc.c
          ClassReqHandler   0x000f82    program     extern E:\Projekte\Bontronic Projekte\esv\Firmware\Bootloader\usbdsc.c
            __zero_memory   0x000f84    program     extern E:\3.46\pic18-lt\cxx-framework\src\traditional\proc\p18f14k50.asm
               zero_block   0x000f92    program     static E:\3.46\pic18-lt\cxx-framework\src\traditional\proc\p18f14k50.asm
                   loop_h   0x000f92    program     static E:\3.46\pic18-lt\cxx-framework\src\traditional\proc\p18f14k50.asm
                compare_l   0x000f9a    program     static E:\3.46\pic18-lt\cxx-framework\src\traditional\proc\p18f14k50.asm
                   loop_l   0x000f9c    program     static E:\3.46\pic18-lt\cxx-framework\src\traditional\proc\p18f14k50.asm
                  userApp   0x001000    program     extern E:\Projekte\Bontronic Projekte\esv\Firmware\Bootloader\main.c
       ___return_lbl00019   0x001004    program     static                          
               __config_0   0x300000    program     static E:\Projekte\Bontronic Projekte\esv\Firmware\Bootloader\main.c
               __config_1   0x300001    program     static E:\Projekte\Bontronic Projekte\esv\Firmware\Bootloader\main.c
               __config_2   0x300002    program     static E:\Projekte\Bontronic Projekte\esv\Firmware\Bootloader\main.c
               __config_3   0x300003    program     static E:\Projekte\Bontronic Projekte\esv\Firmware\Bootloader\main.c
               __config_4   0x300005    program     static E:\Projekte\Bontronic Projekte\esv\Firmware\Bootloader\main.c
               __config_5   0x300006    program     static E:\Projekte\Bontronic Projekte\esv\Firmware\Bootloader\main.c
               __config_6   0x300008    program     static E:\Projekte\Bontronic Projekte\esv\Firmware\Bootloader\main.c
               __config_7   0x300009    program     static E:\Projekte\Bontronic Projekte\esv\Firmware\Bootloader\main.c
               __config_8   0x30000a    program     static E:\Projekte\Bontronic Projekte\esv\Firmware\Bootloader\main.c
               __config_9   0x30000b    program     static E:\Projekte\Bontronic Projekte\esv\Firmware\Bootloader\main.c
              __config_10   0x30000c    program     static E:\Projekte\Bontronic Projekte\esv\Firmware\Bootloader\main.c
              __config_11   0x30000d    program     static E:\Projekte\Bontronic Projekte\esv\Firmware\Bootloader\main.c
                  __tmp_0   0x000000       data     static E:\Projekte\Bontronic Projekte\esv\Firmware\Bootloader\BootPIC18NonJ.c
                  __tmp_0   0x000000       data     static E:\Projekte\Bontronic Projekte\esv\Firmware\Bootloader\usbctrltrf.c
                  __tmp_0   0x000000       data     static E:\Projekte\Bontronic Projekte\esv\Firmware\Bootloader\usbdrv.c
                  __tmp_0   0x000000       data     static E:\Projekte\Bontronic Projekte\esv\Firmware\Bootloader\main.c
                  __tmp_0   0x000000       data     static E:\Projekte\Bontronic Projekte\esv\Firmware\Bootloader\usb9.c
             PacketFromPC   0x000060       data     extern E:\Projekte\Bontronic Projekte\esv\Firmware\Bootloader\BootPIC18NonJ.c
        ProgrammingBuffer   0x0000a1       data     extern E:\Projekte\Bontronic Projekte\esv\Firmware\Bootloader\BootPIC18NonJ.c
    ProgramMemStopAddress   0x0000e1       data     extern E:\Projekte\Bontronic Projekte\esv\Firmware\Bootloader\BootPIC18NonJ.c
                BootState   0x0000e4       data     extern E:\Projekte\Bontronic Projekte\esv\Firmware\Bootloader\BootPIC18NonJ.c
         ErasePageTracker   0x0000e5       data     extern E:\Projekte\Bontronic Projekte\esv\Firmware\Bootloader\BootPIC18NonJ.c
        BufferedDataIndex   0x0000e7       data     extern E:\Projekte\Bontronic Projekte\esv\Firmware\Bootloader\BootPIC18NonJ.c
        ProgrammedPointer   0x0000e8       data     extern E:\Projekte\Bontronic Projekte\esv\Firmware\Bootloader\BootPIC18NonJ.c
         ConfigsLockValue   0x0000eb       data     extern E:\Projekte\Bontronic Projekte\esv\Firmware\Bootloader\BootPIC18NonJ.c
                        i   0x0000ec       data     static E:\Projekte\Bontronic Projekte\esv\Firmware\Bootloader\BootPIC18NonJ.c
                        i   0x0000ed       data     static E:\Projekte\Bontronic Projekte\esv\Firmware\Bootloader\BootPIC18NonJ.c
                        i   0x0000ee       data     static E:\Projekte\Bontronic Projekte\esv\Firmware\Bootloader\BootPIC18NonJ.c
     BytesTakenFromBuffer   0x0000ef       data     static E:\Projekte\Bontronic Projekte\esv\Firmware\Bootloader\BootPIC18NonJ.c
         CorrectionFactor   0x0000f0       data     static E:\Projekte\Bontronic Projekte\esv\Firmware\Bootloader\BootPIC18NonJ.c
                        i   0x0000f1       data     static E:\Projekte\Bontronic Projekte\esv\Firmware\Bootloader\BootPIC18NonJ.c
                        i   0x0000f2       data     static E:\Projekte\Bontronic Projekte\esv\Firmware\Bootloader\BootPIC18NonJ.c
                UnlockKey   0x0000f3       data     static E:\Projekte\Bontronic Projekte\esv\Firmware\Bootloader\BootPIC18NonJ.c
    __UnlockAndActivate:0   0x0000f3       data     extern E:\Projekte\Bontronic Projekte\esv\Firmware\Bootloader\BootPIC18NonJ.c
                idle_rate   0x0000f4       data     extern E:\Projekte\Bontronic Projekte\esv\Firmware\Bootloader\hid.c
          active_protocol   0x0000f5       data     extern E:\Projekte\Bontronic Projekte\esv\Firmware\Bootloader\hid.c
           hid_rpt_rx_len   0x0000f6       data     extern E:\Projekte\Bontronic Projekte\esv\Firmware\Bootloader\hid.c
                   buffer   0x0000f7       data     static E:\Projekte\Bontronic Projekte\esv\Firmware\Bootloader\hid.c
          __HIDTxReport:0   0x0000f7       data     extern E:\Projekte\Bontronic Projekte\esv\Firmware\Bootloader\hid.c
                      len   0x0000f9       data     static E:\Projekte\Bontronic Projekte\esv\Firmware\Bootloader\hid.c
          __HIDTxReport:1   0x0000f9       data     extern E:\Projekte\Bontronic Projekte\esv\Firmware\Bootloader\hid.c
                        i   0x0000fa       data     static E:\Projekte\Bontronic Projekte\esv\Firmware\Bootloader\hid.c
          __HIDRxReport:0   0x0000fb       data     extern E:\Projekte\Bontronic Projekte\esv\Firmware\Bootloader\hid.c
                   buffer   0x0000fb       data     static E:\Projekte\Bontronic Projekte\esv\Firmware\Bootloader\hid.c
          __HIDRxReport:1   0x0000fd       data     extern E:\Projekte\Bontronic Projekte\esv\Firmware\Bootloader\hid.c
                      len   0x0000fd       data     static E:\Projekte\Bontronic Projekte\esv\Firmware\Bootloader\hid.c
       uint_delay_counter   0x0000fe       data     extern E:\Projekte\Bontronic Projekte\esv\Firmware\Bootloader\main.c
                    ep0Bo   0x000200       data     extern E:\Projekte\Bontronic Projekte\esv\Firmware\Bootloader\usbmmap.c
                    ep0Bi   0x000204       data     extern E:\Projekte\Bontronic Projekte\esv\Firmware\Bootloader\usbmmap.c
                    ep1Bo   0x000208       data     extern E:\Projekte\Bontronic Projekte\esv\Firmware\Bootloader\usbmmap.c
                    ep1Bi   0x00020c       data     extern E:\Projekte\Bontronic Projekte\esv\Firmware\Bootloader\usbmmap.c
                 SetupPkt   0x000210       data     extern E:\Projekte\Bontronic Projekte\esv\Firmware\Bootloader\usbmmap.c
              CtrlTrfData   0x000218       data     extern E:\Projekte\Bontronic Projekte\esv\Firmware\Bootloader\usbmmap.c
           hid_report_out   0x000220       data     extern E:\Projekte\Bontronic Projekte\esv\Firmware\Bootloader\usbmmap.c
            hid_report_in   0x000260       data     extern E:\Projekte\Bontronic Projekte\esv\Firmware\Bootloader\usbmmap.c
               PacketToPC   0x0002a0       data     extern E:\Projekte\Bontronic Projekte\esv\Firmware\Bootloader\BootPIC18NonJ.c
           ctrl_trf_state   0x0002e1       data     extern E:\Projekte\Bontronic Projekte\esv\Firmware\Bootloader\usbctrltrf.c
   ctrl_trf_session_owner   0x0002e2       data     extern E:\Projekte\Bontronic Projekte\esv\Firmware\Bootloader\usbctrltrf.c
                     pSrc   0x0002e3       data     extern E:\Projekte\Bontronic Projekte\esv\Firmware\Bootloader\usbctrltrf.c
                     pDst   0x0002e5       data     extern E:\Projekte\Bontronic Projekte\esv\Firmware\Bootloader\usbctrltrf.c
                   wCount   0x0002e7       data     extern E:\Projekte\Bontronic Projekte\esv\Firmware\Bootloader\usbctrltrf.c
         short_pkt_status   0x0002e9       data     extern E:\Projekte\Bontronic Projekte\esv\Firmware\Bootloader\usbctrltrf.c
                setup_cnt   0x0002ea       data     static E:\Projekte\Bontronic Projekte\esv\Firmware\Bootloader\usbctrltrf.c
                        i   0x0002eb       data     static E:\Projekte\Bontronic Projekte\esv\Firmware\Bootloader\usbctrltrf.c
             byte_to_send   0x0002ec       data     static E:\Projekte\Bontronic Projekte\esv\Firmware\Bootloader\usbctrltrf.c
             byte_to_read   0x0002ee       data     static E:\Projekte\Bontronic Projekte\esv\Firmware\Bootloader\usbctrltrf.c
              bTRNIFCount   0x0002f0       data     extern E:\Projekte\Bontronic Projekte\esv\Firmware\Bootloader\usbdrv.c
                  UIESave   0x0002f1       data     static E:\Projekte\Bontronic Projekte\esv\Firmware\Bootloader\usbdrv.c
           __ClearArray:0   0x0002f2       data     extern E:\Projekte\Bontronic Projekte\esv\Firmware\Bootloader\usbdrv.c
                 startAdr   0x0002f2       data     static E:\Projekte\Bontronic Projekte\esv\Firmware\Bootloader\usbdrv.c
           __ClearArray:1   0x0002f4       data     extern E:\Projekte\Bontronic Projekte\esv\Firmware\Bootloader\usbdrv.c
                    count   0x0002f4       data     static E:\Projekte\Bontronic Projekte\esv\Firmware\Bootloader\usbdrv.c
         usb_device_state   0x0002f5       data     extern E:\Projekte\Bontronic Projekte\esv\Firmware\Bootloader\usbmmap.c
                 usb_stat   0x0002f6       data     extern E:\Projekte\Bontronic Projekte\esv\Firmware\Bootloader\usbmmap.c
           usb_active_cfg   0x0002f7       data     extern E:\Projekte\Bontronic Projekte\esv\Firmware\Bootloader\usbmmap.c
             usb_alt_intf   0x0002f8       data     extern E:\Projekte\Bontronic Projekte\esv\Firmware\Bootloader\usbmmap.c
                led_count   0x0002f9       data     static E:\Projekte\Bontronic Projekte\esv\Firmware\Bootloader\main.c
                     UEP0   0x000f53       data     extern E:\3.46\pic18-lt\cxx-framework\src\traditional\proc\p18f14k50.asm
                 UEP0bits   0x000f53       data     extern E:\3.46\pic18-lt\cxx-framework\src\traditional\proc\p18f14k50.asm
                     UEP1   0x000f54       data     extern E:\3.46\pic18-lt\cxx-framework\src\traditional\proc\p18f14k50.asm
                 UEP1bits   0x000f54       data     extern E:\3.46\pic18-lt\cxx-framework\src\traditional\proc\p18f14k50.asm
                     UEP2   0x000f55       data     extern E:\3.46\pic18-lt\cxx-framework\src\traditional\proc\p18f14k50.asm
                 UEP2bits   0x000f55       data     extern E:\3.46\pic18-lt\cxx-framework\src\traditional\proc\p18f14k50.asm
                     UEP3   0x000f56       data     extern E:\3.46\pic18-lt\cxx-framework\src\traditional\proc\p18f14k50.asm
                 UEP3bits   0x000f56       data     extern E:\3.46\pic18-lt\cxx-framework\src\traditional\proc\p18f14k50.asm
                 UEP4bits   0x000f57       data     extern E:\3.46\pic18-lt\cxx-framework\src\traditional\proc\p18f14k50.asm
                     UEP4   0x000f57       data     extern E:\3.46\pic18-lt\cxx-framework\src\traditional\proc\p18f14k50.asm
                 UEP5bits   0x000f58       data     extern E:\3.46\pic18-lt\cxx-framework\src\traditional\proc\p18f14k50.asm
                     UEP5   0x000f58       data     extern E:\3.46\pic18-lt\cxx-framework\src\traditional\proc\p18f14k50.asm
                     UEP6   0x000f59       data     extern E:\3.46\pic18-lt\cxx-framework\src\traditional\proc\p18f14k50.asm
                 UEP6bits   0x000f59       data     extern E:\3.46\pic18-lt\cxx-framework\src\traditional\proc\p18f14k50.asm
                 UEP7bits   0x000f5a       data     extern E:\3.46\pic18-lt\cxx-framework\src\traditional\proc\p18f14k50.asm
                     UEP7   0x000f5a       data     extern E:\3.46\pic18-lt\cxx-framework\src\traditional\proc\p18f14k50.asm
                 UEIEbits   0x000f5b       data     extern E:\3.46\pic18-lt\cxx-framework\src\traditional\proc\p18f14k50.asm
                     UEIE   0x000f5b       data     extern E:\3.46\pic18-lt\cxx-framework\src\traditional\proc\p18f14k50.asm
                    UADDR   0x000f5c       data     extern E:\3.46\pic18-lt\cxx-framework\src\traditional\proc\p18f14k50.asm
                UADDRbits   0x000f5c       data     extern E:\3.46\pic18-lt\cxx-framework\src\traditional\proc\p18f14k50.asm
                    UFRML   0x000f5d       data     extern E:\3.46\pic18-lt\cxx-framework\src\traditional\proc\p18f14k50.asm
                UFRMLbits   0x000f5d       data     extern E:\3.46\pic18-lt\cxx-framework\src\traditional\proc\p18f14k50.asm
                    UFRMH   0x000f5e       data     extern E:\3.46\pic18-lt\cxx-framework\src\traditional\proc\p18f14k50.asm
                UFRMHbits   0x000f5e       data     extern E:\3.46\pic18-lt\cxx-framework\src\traditional\proc\p18f14k50.asm
                     UEIR   0x000f5f       data     extern E:\3.46\pic18-lt\cxx-framework\src\traditional\proc\p18f14k50.asm
                 UEIRbits   0x000f5f       data     extern E:\3.46\pic18-lt\cxx-framework\src\traditional\proc\p18f14k50.asm
                      UIE   0x000f60       data     extern E:\3.46\pic18-lt\cxx-framework\src\traditional\proc\p18f14k50.asm
                  UIEbits   0x000f60       data     extern E:\3.46\pic18-lt\cxx-framework\src\traditional\proc\p18f14k50.asm
                     UCFG   0x000f61       data     extern E:\3.46\pic18-lt\cxx-framework\src\traditional\proc\p18f14k50.asm
                 UCFGbits   0x000f61       data     extern E:\3.46\pic18-lt\cxx-framework\src\traditional\proc\p18f14k50.asm
                      UIR   0x000f62       data     extern E:\3.46\pic18-lt\cxx-framework\src\traditional\proc\p18f14k50.asm
                  UIRbits   0x000f62       data     extern E:\3.46\pic18-lt\cxx-framework\src\traditional\proc\p18f14k50.asm
                USTATbits   0x000f63       data     extern E:\3.46\pic18-lt\cxx-framework\src\traditional\proc\p18f14k50.asm
                    USTAT   0x000f63       data     extern E:\3.46\pic18-lt\cxx-framework\src\traditional\proc\p18f14k50.asm
                     UCON   0x000f64       data     extern E:\3.46\pic18-lt\cxx-framework\src\traditional\proc\p18f14k50.asm
                 UCONbits   0x000f64       data     extern E:\3.46\pic18-lt\cxx-framework\src\traditional\proc\p18f14k50.asm
               SRCON0bits   0x000f68       data     extern E:\3.46\pic18-lt\cxx-framework\src\traditional\proc\p18f14k50.asm
                   SRCON0   0x000f68       data     extern E:\3.46\pic18-lt\cxx-framework\src\traditional\proc\p18f14k50.asm
                   SRCON1   0x000f69       data     extern E:\3.46\pic18-lt\cxx-framework\src\traditional\proc\p18f14k50.asm
               SRCON1bits   0x000f69       data     extern E:\3.46\pic18-lt\cxx-framework\src\traditional\proc\p18f14k50.asm
                  CM2CON0   0x000f6b       data     extern E:\3.46\pic18-lt\cxx-framework\src\traditional\proc\p18f14k50.asm
              CM2CON0bits   0x000f6b       data     extern E:\3.46\pic18-lt\cxx-framework\src\traditional\proc\p18f14k50.asm
                  CM2CON1   0x000f6c       data     extern E:\3.46\pic18-lt\cxx-framework\src\traditional\proc\p18f14k50.asm
              CM2CON1bits   0x000f6c       data     extern E:\3.46\pic18-lt\cxx-framework\src\traditional\proc\p18f14k50.asm
              CM1CON0bits   0x000f6d       data     extern E:\3.46\pic18-lt\cxx-framework\src\traditional\proc\p18f14k50.asm
                  CM1CON0   0x000f6d       data     extern E:\3.46\pic18-lt\cxx-framework\src\traditional\proc\p18f14k50.asm
                   SSPMSK   0x000f6f       data     extern E:\3.46\pic18-lt\cxx-framework\src\traditional\proc\p18f14k50.asm
               SSPMSKbits   0x000f6f       data     extern E:\3.46\pic18-lt\cxx-framework\src\traditional\proc\p18f14k50.asm
               SLRCONbits   0x000f76       data     extern E:\3.46\pic18-lt\cxx-framework\src\traditional\proc\p18f14k50.asm
                   SLRCON   0x000f76       data     extern E:\3.46\pic18-lt\cxx-framework\src\traditional\proc\p18f14k50.asm
                 WPUAbits   0x000f77       data     extern E:\3.46\pic18-lt\cxx-framework\src\traditional\proc\p18f14k50.asm
                     WPUA   0x000f77       data     extern E:\3.46\pic18-lt\cxx-framework\src\traditional\proc\p18f14k50.asm
                 WPUBbits   0x000f78       data     extern E:\3.46\pic18-lt\cxx-framework\src\traditional\proc\p18f14k50.asm
                     WPUB   0x000f78       data     extern E:\3.46\pic18-lt\cxx-framework\src\traditional\proc\p18f14k50.asm
                 IOCAbits   0x000f79       data     extern E:\3.46\pic18-lt\cxx-framework\src\traditional\proc\p18f14k50.asm
                     IOCA   0x000f79       data     extern E:\3.46\pic18-lt\cxx-framework\src\traditional\proc\p18f14k50.asm
                     IOCB   0x000f7a       data     extern E:\3.46\pic18-lt\cxx-framework\src\traditional\proc\p18f14k50.asm
                 IOCBbits   0x000f7a       data     extern E:\3.46\pic18-lt\cxx-framework\src\traditional\proc\p18f14k50.asm
                ANSELbits   0x000f7e       data     extern E:\3.46\pic18-lt\cxx-framework\src\traditional\proc\p18f14k50.asm
                    ANSEL   0x000f7e       data     extern E:\3.46\pic18-lt\cxx-framework\src\traditional\proc\p18f14k50.asm
               ANSELHbits   0x000f7f       data     extern E:\3.46\pic18-lt\cxx-framework\src\traditional\proc\p18f14k50.asm
                   ANSELH   0x000f7f       data     extern E:\3.46\pic18-lt\cxx-framework\src\traditional\proc\p18f14k50.asm
                PORTAbits   0x000f80       data     extern E:\3.46\pic18-lt\cxx-framework\src\traditional\proc\p18f14k50.asm
                    PORTA   0x000f80       data     extern E:\3.46\pic18-lt\cxx-framework\src\traditional\proc\p18f14k50.asm
                PORTBbits   0x000f81       data     extern E:\3.46\pic18-lt\cxx-framework\src\traditional\proc\p18f14k50.asm
                    PORTB   0x000f81       data     extern E:\3.46\pic18-lt\cxx-framework\src\traditional\proc\p18f14k50.asm
                    PORTC   0x000f82       data     extern E:\3.46\pic18-lt\cxx-framework\src\traditional\proc\p18f14k50.asm
                PORTCbits   0x000f82       data     extern E:\3.46\pic18-lt\cxx-framework\src\traditional\proc\p18f14k50.asm
                 LATAbits   0x000f89       data     extern E:\3.46\pic18-lt\cxx-framework\src\traditional\proc\p18f14k50.asm
                     LATA   0x000f89       data     extern E:\3.46\pic18-lt\cxx-framework\src\traditional\proc\p18f14k50.asm
                     LATB   0x000f8a       data     extern E:\3.46\pic18-lt\cxx-framework\src\traditional\proc\p18f14k50.asm
                 LATBbits   0x000f8a       data     extern E:\3.46\pic18-lt\cxx-framework\src\traditional\proc\p18f14k50.asm
                 LATCbits   0x000f8b       data     extern E:\3.46\pic18-lt\cxx-framework\src\traditional\proc\p18f14k50.asm
                     LATC   0x000f8b       data     extern E:\3.46\pic18-lt\cxx-framework\src\traditional\proc\p18f14k50.asm
                 DDRAbits   0x000f92       data     extern E:\3.46\pic18-lt\cxx-framework\src\traditional\proc\p18f14k50.asm
                     DDRA   0x000f92       data     extern E:\3.46\pic18-lt\cxx-framework\src\traditional\proc\p18f14k50.asm
                TRISAbits   0x000f92       data     extern E:\3.46\pic18-lt\cxx-framework\src\traditional\proc\p18f14k50.asm
                    TRISA   0x000f92       data     extern E:\3.46\pic18-lt\cxx-framework\src\traditional\proc\p18f14k50.asm
                    TRISB   0x000f93       data     extern E:\3.46\pic18-lt\cxx-framework\src\traditional\proc\p18f14k50.asm
                TRISBbits   0x000f93       data     extern E:\3.46\pic18-lt\cxx-framework\src\traditional\proc\p18f14k50.asm
                     DDRB   0x000f93       data     extern E:\3.46\pic18-lt\cxx-framework\src\traditional\proc\p18f14k50.asm
                 DDRBbits   0x000f93       data     extern E:\3.46\pic18-lt\cxx-framework\src\traditional\proc\p18f14k50.asm
                    TRISC   0x000f94       data     extern E:\3.46\pic18-lt\cxx-framework\src\traditional\proc\p18f14k50.asm
                TRISCbits   0x000f94       data     extern E:\3.46\pic18-lt\cxx-framework\src\traditional\proc\p18f14k50.asm
                     DDRC   0x000f94       data     extern E:\3.46\pic18-lt\cxx-framework\src\traditional\proc\p18f14k50.asm
                 DDRCbits   0x000f94       data     extern E:\3.46\pic18-lt\cxx-framework\src\traditional\proc\p18f14k50.asm
                  OSCTUNE   0x000f9b       data     extern E:\3.46\pic18-lt\cxx-framework\src\traditional\proc\p18f14k50.asm
              OSCTUNEbits   0x000f9b       data     extern E:\3.46\pic18-lt\cxx-framework\src\traditional\proc\p18f14k50.asm
                     PIE1   0x000f9d       data     extern E:\3.46\pic18-lt\cxx-framework\src\traditional\proc\p18f14k50.asm
                 PIE1bits   0x000f9d       data     extern E:\3.46\pic18-lt\cxx-framework\src\traditional\proc\p18f14k50.asm
                     PIR1   0x000f9e       data     extern E:\3.46\pic18-lt\cxx-framework\src\traditional\proc\p18f14k50.asm
                 PIR1bits   0x000f9e       data     extern E:\3.46\pic18-lt\cxx-framework\src\traditional\proc\p18f14k50.asm
                     IPR1   0x000f9f       data     extern E:\3.46\pic18-lt\cxx-framework\src\traditional\proc\p18f14k50.asm
                 IPR1bits   0x000f9f       data     extern E:\3.46\pic18-lt\cxx-framework\src\traditional\proc\p18f14k50.asm
                     PIE2   0x000fa0       data     extern E:\3.46\pic18-lt\cxx-framework\src\traditional\proc\p18f14k50.asm
                 PIE2bits   0x000fa0       data     extern E:\3.46\pic18-lt\cxx-framework\src\traditional\proc\p18f14k50.asm
                     PIR2   0x000fa1       data     extern E:\3.46\pic18-lt\cxx-framework\src\traditional\proc\p18f14k50.asm
                 PIR2bits   0x000fa1       data     extern E:\3.46\pic18-lt\cxx-framework\src\traditional\proc\p18f14k50.asm
                     IPR2   0x000fa2       data     extern E:\3.46\pic18-lt\cxx-framework\src\traditional\proc\p18f14k50.asm
                 IPR2bits   0x000fa2       data     extern E:\3.46\pic18-lt\cxx-framework\src\traditional\proc\p18f14k50.asm
               EECON1bits   0x000fa6       data     extern E:\3.46\pic18-lt\cxx-framework\src\traditional\proc\p18f14k50.asm
                   EECON1   0x000fa6       data     extern E:\3.46\pic18-lt\cxx-framework\src\traditional\proc\p18f14k50.asm
                   EECON2   0x000fa7       data     extern E:\3.46\pic18-lt\cxx-framework\src\traditional\proc\p18f14k50.asm
                   EEDATA   0x000fa8       data     extern E:\3.46\pic18-lt\cxx-framework\src\traditional\proc\p18f14k50.asm
                    EEADR   0x000fa9       data     extern E:\3.46\pic18-lt\cxx-framework\src\traditional\proc\p18f14k50.asm
                EEADRbits   0x000fa9       data     extern E:\3.46\pic18-lt\cxx-framework\src\traditional\proc\p18f14k50.asm
                RCSTAbits   0x000fab       data     extern E:\3.46\pic18-lt\cxx-framework\src\traditional\proc\p18f14k50.asm
                    RCSTA   0x000fab       data     extern E:\3.46\pic18-lt\cxx-framework\src\traditional\proc\p18f14k50.asm
                TXSTAbits   0x000fac       data     extern E:\3.46\pic18-lt\cxx-framework\src\traditional\proc\p18f14k50.asm
                    TXSTA   0x000fac       data     extern E:\3.46\pic18-lt\cxx-framework\src\traditional\proc\p18f14k50.asm
                    TXREG   0x000fad       data     extern E:\3.46\pic18-lt\cxx-framework\src\traditional\proc\p18f14k50.asm
                    RCREG   0x000fae       data     extern E:\3.46\pic18-lt\cxx-framework\src\traditional\proc\p18f14k50.asm
                    SPBRG   0x000faf       data     extern E:\3.46\pic18-lt\cxx-framework\src\traditional\proc\p18f14k50.asm
                   SPBRGH   0x000fb0       data     extern E:\3.46\pic18-lt\cxx-framework\src\traditional\proc\p18f14k50.asm
                T3CONbits   0x000fb1       data     extern E:\3.46\pic18-lt\cxx-framework\src\traditional\proc\p18f14k50.asm
                    T3CON   0x000fb1       data     extern E:\3.46\pic18-lt\cxx-framework\src\traditional\proc\p18f14k50.asm
                    TMR3L   0x000fb2       data     extern E:\3.46\pic18-lt\cxx-framework\src\traditional\proc\p18f14k50.asm
                    TMR3H   0x000fb3       data     extern E:\3.46\pic18-lt\cxx-framework\src\traditional\proc\p18f14k50.asm
              ECCP1ASbits   0x000fb6       data     extern E:\3.46\pic18-lt\cxx-framework\src\traditional\proc\p18f14k50.asm
                  ECCP1AS   0x000fb6       data     extern E:\3.46\pic18-lt\cxx-framework\src\traditional\proc\p18f14k50.asm
                  PWM1CON   0x000fb7       data     extern E:\3.46\pic18-lt\cxx-framework\src\traditional\proc\p18f14k50.asm
              PWM1CONbits   0x000fb7       data     extern E:\3.46\pic18-lt\cxx-framework\src\traditional\proc\p18f14k50.asm
                  BAUDCON   0x000fb8       data     extern E:\3.46\pic18-lt\cxx-framework\src\traditional\proc\p18f14k50.asm
              BAUDCTLbits   0x000fb8       data     extern E:\3.46\pic18-lt\cxx-framework\src\traditional\proc\p18f14k50.asm
                  BAUDCTL   0x000fb8       data     extern E:\3.46\pic18-lt\cxx-framework\src\traditional\proc\p18f14k50.asm
              BAUDCONbits   0x000fb8       data     extern E:\3.46\pic18-lt\cxx-framework\src\traditional\proc\p18f14k50.asm
                  PSTRCON   0x000fb9       data     extern E:\3.46\pic18-lt\cxx-framework\src\traditional\proc\p18f14k50.asm
              PSTRCONbits   0x000fb9       data     extern E:\3.46\pic18-lt\cxx-framework\src\traditional\proc\p18f14k50.asm
                  REFCON0   0x000fba       data     extern E:\3.46\pic18-lt\cxx-framework\src\traditional\proc\p18f14k50.asm
              REFCON0bits   0x000fba       data     extern E:\3.46\pic18-lt\cxx-framework\src\traditional\proc\p18f14k50.asm
             VREFCON0bits   0x000fba       data     extern E:\3.46\pic18-lt\cxx-framework\src\traditional\proc\p18f14k50.asm
                 VREFCON0   0x000fba       data     extern E:\3.46\pic18-lt\cxx-framework\src\traditional\proc\p18f14k50.asm
              REFCON1bits   0x000fbb       data     extern E:\3.46\pic18-lt\cxx-framework\src\traditional\proc\p18f14k50.asm
                  REFCON1   0x000fbb       data     extern E:\3.46\pic18-lt\cxx-framework\src\traditional\proc\p18f14k50.asm
             VREFCON1bits   0x000fbb       data     extern E:\3.46\pic18-lt\cxx-framework\src\traditional\proc\p18f14k50.asm
                 VREFCON1   0x000fbb       data     extern E:\3.46\pic18-lt\cxx-framework\src\traditional\proc\p18f14k50.asm
                  REFCON2   0x000fbc       data     extern E:\3.46\pic18-lt\cxx-framework\src\traditional\proc\p18f14k50.asm
              REFCON2bits   0x000fbc       data     extern E:\3.46\pic18-lt\cxx-framework\src\traditional\proc\p18f14k50.asm
             VREFCON2bits   0x000fbc       data     extern E:\3.46\pic18-lt\cxx-framework\src\traditional\proc\p18f14k50.asm
                 VREFCON2   0x000fbc       data     extern E:\3.46\pic18-lt\cxx-framework\src\traditional\proc\p18f14k50.asm
                  CCP1CON   0x000fbd       data     extern E:\3.46\pic18-lt\cxx-framework\src\traditional\proc\p18f14k50.asm
              CCP1CONbits   0x000fbd       data     extern E:\3.46\pic18-lt\cxx-framework\src\traditional\proc\p18f14k50.asm
                    CCPR1   0x000fbe       data     extern E:\3.46\pic18-lt\cxx-framework\src\traditional\proc\p18f14k50.asm
                   CCPR1L   0x000fbe       data     extern E:\3.46\pic18-lt\cxx-framework\src\traditional\proc\p18f14k50.asm
                   CCPR1H   0x000fbf       data     extern E:\3.46\pic18-lt\cxx-framework\src\traditional\proc\p18f14k50.asm
               ADCON2bits   0x000fc0       data     extern E:\3.46\pic18-lt\cxx-framework\src\traditional\proc\p18f14k50.asm
                   ADCON2   0x000fc0       data     extern E:\3.46\pic18-lt\cxx-framework\src\traditional\proc\p18f14k50.asm
               ADCON1bits   0x000fc1       data     extern E:\3.46\pic18-lt\cxx-framework\src\traditional\proc\p18f14k50.asm
                   ADCON1   0x000fc1       data     extern E:\3.46\pic18-lt\cxx-framework\src\traditional\proc\p18f14k50.asm
                   ADCON0   0x000fc2       data     extern E:\3.46\pic18-lt\cxx-framework\src\traditional\proc\p18f14k50.asm
               ADCON0bits   0x000fc2       data     extern E:\3.46\pic18-lt\cxx-framework\src\traditional\proc\p18f14k50.asm
                    ADRES   0x000fc3       data     extern E:\3.46\pic18-lt\cxx-framework\src\traditional\proc\p18f14k50.asm
                   ADRESL   0x000fc3       data     extern E:\3.46\pic18-lt\cxx-framework\src\traditional\proc\p18f14k50.asm
                   ADRESH   0x000fc4       data     extern E:\3.46\pic18-lt\cxx-framework\src\traditional\proc\p18f14k50.asm
              SSPCON2bits   0x000fc5       data     extern E:\3.46\pic18-lt\cxx-framework\src\traditional\proc\p18f14k50.asm
                  SSPCON2   0x000fc5       data     extern E:\3.46\pic18-lt\cxx-framework\src\traditional\proc\p18f14k50.asm
              SSPCON1bits   0x000fc6       data     extern E:\3.46\pic18-lt\cxx-framework\src\traditional\proc\p18f14k50.asm
                  SSPCON1   0x000fc6       data     extern E:\3.46\pic18-lt\cxx-framework\src\traditional\proc\p18f14k50.asm
              SSPSTATbits   0x000fc7       data     extern E:\3.46\pic18-lt\cxx-framework\src\traditional\proc\p18f14k50.asm
                  SSPSTAT   0x000fc7       data     extern E:\3.46\pic18-lt\cxx-framework\src\traditional\proc\p18f14k50.asm
                   SSPADD   0x000fc8       data     extern E:\3.46\pic18-lt\cxx-framework\src\traditional\proc\p18f14k50.asm
                   SSPBUF   0x000fc9       data     extern E:\3.46\pic18-lt\cxx-framework\src\traditional\proc\p18f14k50.asm
                T2CONbits   0x000fca       data     extern E:\3.46\pic18-lt\cxx-framework\src\traditional\proc\p18f14k50.asm
                    T2CON   0x000fca       data     extern E:\3.46\pic18-lt\cxx-framework\src\traditional\proc\p18f14k50.asm
                      PR2   0x000fcb       data     extern E:\3.46\pic18-lt\cxx-framework\src\traditional\proc\p18f14k50.asm
                     TMR2   0x000fcc       data     extern E:\3.46\pic18-lt\cxx-framework\src\traditional\proc\p18f14k50.asm
                T1CONbits   0x000fcd       data     extern E:\3.46\pic18-lt\cxx-framework\src\traditional\proc\p18f14k50.asm
                    T1CON   0x000fcd       data     extern E:\3.46\pic18-lt\cxx-framework\src\traditional\proc\p18f14k50.asm
                    TMR1L   0x000fce       data     extern E:\3.46\pic18-lt\cxx-framework\src\traditional\proc\p18f14k50.asm
                    TMR1H   0x000fcf       data     extern E:\3.46\pic18-lt\cxx-framework\src\traditional\proc\p18f14k50.asm
                 RCONbits   0x000fd0       data     extern E:\3.46\pic18-lt\cxx-framework\src\traditional\proc\p18f14k50.asm
                     RCON   0x000fd0       data     extern E:\3.46\pic18-lt\cxx-framework\src\traditional\proc\p18f14k50.asm
               WDTCONbits   0x000fd1       data     extern E:\3.46\pic18-lt\cxx-framework\src\traditional\proc\p18f14k50.asm
                   WDTCON   0x000fd1       data     extern E:\3.46\pic18-lt\cxx-framework\src\traditional\proc\p18f14k50.asm
              OSCCON2bits   0x000fd2       data     extern E:\3.46\pic18-lt\cxx-framework\src\traditional\proc\p18f14k50.asm
                  OSCCON2   0x000fd2       data     extern E:\3.46\pic18-lt\cxx-framework\src\traditional\proc\p18f14k50.asm
               OSCCONbits   0x000fd3       data     extern E:\3.46\pic18-lt\cxx-framework\src\traditional\proc\p18f14k50.asm
                   OSCCON   0x000fd3       data     extern E:\3.46\pic18-lt\cxx-framework\src\traditional\proc\p18f14k50.asm
                    T0CON   0x000fd5       data     extern E:\3.46\pic18-lt\cxx-framework\src\traditional\proc\p18f14k50.asm
                T0CONbits   0x000fd5       data     extern E:\3.46\pic18-lt\cxx-framework\src\traditional\proc\p18f14k50.asm
                    TMR0L   0x000fd6       data     extern E:\3.46\pic18-lt\cxx-framework\src\traditional\proc\p18f14k50.asm
                    TMR0H   0x000fd7       data     extern E:\3.46\pic18-lt\cxx-framework\src\traditional\proc\p18f14k50.asm
                   STATUS   0x000fd8       data     extern E:\3.46\pic18-lt\cxx-framework\src\traditional\proc\p18f14k50.asm
               STATUSbits   0x000fd8       data     extern E:\3.46\pic18-lt\cxx-framework\src\traditional\proc\p18f14k50.asm
                    FSR2L   0x000fd9       data     extern E:\3.46\pic18-lt\cxx-framework\src\traditional\proc\p18f14k50.asm
                     FSR2   0x000fd9       data     extern E:\3.46\pic18-lt\cxx-framework\src\traditional\proc\p18f14k50.asm
                    FSR2H   0x000fda       data     extern E:\3.46\pic18-lt\cxx-framework\src\traditional\proc\p18f14k50.asm
                   PLUSW2   0x000fdb       data     extern E:\3.46\pic18-lt\cxx-framework\src\traditional\proc\p18f14k50.asm
                  PREINC2   0x000fdc       data     extern E:\3.46\pic18-lt\cxx-framework\src\traditional\proc\p18f14k50.asm
                 POSTDEC2   0x000fdd       data     extern E:\3.46\pic18-lt\cxx-framework\src\traditional\proc\p18f14k50.asm
                 POSTINC2   0x000fde       data     extern E:\3.46\pic18-lt\cxx-framework\src\traditional\proc\p18f14k50.asm
                    INDF2   0x000fdf       data     extern E:\3.46\pic18-lt\cxx-framework\src\traditional\proc\p18f14k50.asm
                      BSR   0x000fe0       data     extern E:\3.46\pic18-lt\cxx-framework\src\traditional\proc\p18f14k50.asm
                    FSR1L   0x000fe1       data     extern E:\3.46\pic18-lt\cxx-framework\src\traditional\proc\p18f14k50.asm
                     FSR1   0x000fe1       data     extern E:\3.46\pic18-lt\cxx-framework\src\traditional\proc\p18f14k50.asm
                    FSR1H   0x000fe2       data     extern E:\3.46\pic18-lt\cxx-framework\src\traditional\proc\p18f14k50.asm
                   PLUSW1   0x000fe3       data     extern E:\3.46\pic18-lt\cxx-framework\src\traditional\proc\p18f14k50.asm
                  PREINC1   0x000fe4       data     extern E:\3.46\pic18-lt\cxx-framework\src\traditional\proc\p18f14k50.asm
                 POSTDEC1   0x000fe5       data     extern E:\3.46\pic18-lt\cxx-framework\src\traditional\proc\p18f14k50.asm
                 POSTINC1   0x000fe6       data     extern E:\3.46\pic18-lt\cxx-framework\src\traditional\proc\p18f14k50.asm
                    INDF1   0x000fe7       data     extern E:\3.46\pic18-lt\cxx-framework\src\traditional\proc\p18f14k50.asm
                     WREG   0x000fe8       data     extern E:\3.46\pic18-lt\cxx-framework\src\traditional\proc\p18f14k50.asm
                        W   0x000fe8       data     extern E:\3.46\pic18-lt\cxx-framework\src\traditional\proc\p18f14k50.asm
                    FSR0L   0x000fe9       data     extern E:\3.46\pic18-lt\cxx-framework\src\traditional\proc\p18f14k50.asm
                     FSR0   0x000fe9       data     extern E:\3.46\pic18-lt\cxx-framework\src\traditional\proc\p18f14k50.asm
                    FSR0H   0x000fea       data     extern E:\3.46\pic18-lt\cxx-framework\src\traditional\proc\p18f14k50.asm
                   PLUSW0   0x000feb       data     extern E:\3.46\pic18-lt\cxx-framework\src\traditional\proc\p18f14k50.asm
                  PREINC0   0x000fec       data     extern E:\3.46\pic18-lt\cxx-framework\src\traditional\proc\p18f14k50.asm
                 POSTDEC0   0x000fed       data     extern E:\3.46\pic18-lt\cxx-framework\src\traditional\proc\p18f14k50.asm
                 POSTINC0   0x000fee       data     extern E:\3.46\pic18-lt\cxx-framework\src\traditional\proc\p18f14k50.asm
                    INDF0   0x000fef       data     extern E:\3.46\pic18-lt\cxx-framework\src\traditional\proc\p18f14k50.asm
              INTCON3bits   0x000ff0       data     extern E:\3.46\pic18-lt\cxx-framework\src\traditional\proc\p18f14k50.asm
                  INTCON3   0x000ff0       data     extern E:\3.46\pic18-lt\cxx-framework\src\traditional\proc\p18f14k50.asm
              INTCON2bits   0x000ff1       data     extern E:\3.46\pic18-lt\cxx-framework\src\traditional\proc\p18f14k50.asm
                  INTCON2   0x000ff1       data     extern E:\3.46\pic18-lt\cxx-framework\src\traditional\proc\p18f14k50.asm
               INTCONbits   0x000ff2       data     extern E:\3.46\pic18-lt\cxx-framework\src\traditional\proc\p18f14k50.asm
                   INTCON   0x000ff2       data     extern E:\3.46\pic18-lt\cxx-framework\src\traditional\proc\p18f14k50.asm
                    PRODL   0x000ff3       data     extern E:\3.46\pic18-lt\cxx-framework\src\traditional\proc\p18f14k50.asm
                     PROD   0x000ff3       data     extern E:\3.46\pic18-lt\cxx-framework\src\traditional\proc\p18f14k50.asm
                    PRODH   0x000ff4       data     extern E:\3.46\pic18-lt\cxx-framework\src\traditional\proc\p18f14k50.asm
                   TABLAT   0x000ff5       data     extern E:\3.46\pic18-lt\cxx-framework\src\traditional\proc\p18f14k50.asm
                   TBLPTR   0x000ff6       data     extern E:\3.46\pic18-lt\cxx-framework\src\traditional\proc\p18f14k50.asm
                  TBLPTRL   0x000ff6       data     extern E:\3.46\pic18-lt\cxx-framework\src\traditional\proc\p18f14k50.asm
                  TBLPTRH   0x000ff7       data     extern E:\3.46\pic18-lt\cxx-framework\src\traditional\proc\p18f14k50.asm
                  TBLPTRU   0x000ff8       data     extern E:\3.46\pic18-lt\cxx-framework\src\traditional\proc\p18f14k50.asm
                      PCL   0x000ff9       data     extern E:\3.46\pic18-lt\cxx-framework\src\traditional\proc\p18f14k50.asm
                       PC   0x000ff9       data     extern E:\3.46\pic18-lt\cxx-framework\src\traditional\proc\p18f14k50.asm
                   PCLATH   0x000ffa       data     extern E:\3.46\pic18-lt\cxx-framework\src\traditional\proc\p18f14k50.asm
                   PCLATU   0x000ffb       data     extern E:\3.46\pic18-lt\cxx-framework\src\traditional\proc\p18f14k50.asm
               STKPTRbits   0x000ffc       data     extern E:\3.46\pic18-lt\cxx-framework\src\traditional\proc\p18f14k50.asm
                   STKPTR   0x000ffc       data     extern E:\3.46\pic18-lt\cxx-framework\src\traditional\proc\p18f14k50.asm
                      TOS   0x000ffd       data     extern E:\3.46\pic18-lt\cxx-framework\src\traditional\proc\p18f14k50.asm
                     TOSL   0x000ffd       data     extern E:\3.46\pic18-lt\cxx-framework\src\traditional\proc\p18f14k50.asm
                     TOSH   0x000ffe       data     extern E:\3.46\pic18-lt\cxx-framework\src\traditional\proc\p18f14k50.asm
                     TOSU   0x000fff       data     extern E:\3.46\pic18-lt\cxx-framework\src\traditional\proc\p18f14k50.asm


